{
  "_format": "hh-sol-artifact-1",
  "contractName": "SmartAgreementAnchoring",
  "sourceName": "contracts/SmartAgreementAnchoring.sol",
  "abi": [
    {
      "inputs": [
        {
          "internalType": "address",
          "name": "tokenAddress",
          "type": "address"
        },
        {
          "internalType": "uint256",
          "name": "initialFee",
          "type": "uint256"
        }
      ],
      "stateMutability": "nonpayable",
      "type": "constructor"
    },
    {
      "anonymous": false,
      "inputs": [
        {
          "indexed": true,
          "internalType": "string",
          "name": "hashedDocumentId",
          "type": "string"
        },
        {
          "indexed": false,
          "internalType": "string",
          "name": "documentId",
          "type": "string"
        },
        {
          "indexed": true,
          "internalType": "address",
          "name": "counterparty",
          "type": "address"
        }
      ],
      "name": "AcceptedByCounterparty",
      "type": "event"
    },
    {
      "anonymous": false,
      "inputs": [
        {
          "indexed": true,
          "internalType": "string",
          "name": "hashedDocumentId",
          "type": "string"
        },
        {
          "indexed": false,
          "internalType": "string",
          "name": "documentId",
          "type": "string"
        }
      ],
      "name": "AgreementAccepted",
      "type": "event"
    },
    {
      "anonymous": false,
      "inputs": [
        {
          "indexed": true,
          "internalType": "string",
          "name": "hashedDocumentId",
          "type": "string"
        },
        {
          "indexed": false,
          "internalType": "string",
          "name": "documentId",
          "type": "string"
        }
      ],
      "name": "AgreementDeclined",
      "type": "event"
    },
    {
      "anonymous": false,
      "inputs": [
        {
          "indexed": true,
          "internalType": "string",
          "name": "hashedDocumentId",
          "type": "string"
        },
        {
          "indexed": false,
          "internalType": "string",
          "name": "documentId",
          "type": "string"
        },
        {
          "indexed": true,
          "internalType": "address",
          "name": "counterparty",
          "type": "address"
        }
      ],
      "name": "DeclinedByCounterparty",
      "type": "event"
    },
    {
      "anonymous": false,
      "inputs": [
        {
          "indexed": true,
          "internalType": "address",
          "name": "proposer",
          "type": "address"
        },
        {
          "indexed": true,
          "internalType": "string",
          "name": "proposerDID",
          "type": "string"
        },
        {
          "indexed": false,
          "internalType": "string",
          "name": "documentId",
          "type": "string"
        }
      ],
      "name": "DocumentAnchored",
      "type": "event"
    },
    {
      "anonymous": false,
      "inputs": [
        {
          "indexed": false,
          "internalType": "uint256",
          "name": "fee",
          "type": "uint256"
        }
      ],
      "name": "FeeChanged",
      "type": "event"
    },
    {
      "anonymous": false,
      "inputs": [
        {
          "indexed": true,
          "internalType": "address",
          "name": "previousOwner",
          "type": "address"
        },
        {
          "indexed": true,
          "internalType": "address",
          "name": "newOwner",
          "type": "address"
        }
      ],
      "name": "OwnershipTransferred",
      "type": "event"
    },
    {
      "anonymous": false,
      "inputs": [
        {
          "indexed": false,
          "internalType": "address",
          "name": "account",
          "type": "address"
        }
      ],
      "name": "Paused",
      "type": "event"
    },
    {
      "anonymous": false,
      "inputs": [
        {
          "indexed": true,
          "internalType": "address",
          "name": "proposer",
          "type": "address"
        },
        {
          "indexed": false,
          "internalType": "string",
          "name": "proposerDID",
          "type": "string"
        },
        {
          "indexed": true,
          "internalType": "address",
          "name": "recipient",
          "type": "address"
        },
        {
          "indexed": false,
          "internalType": "string",
          "name": "recipientDID",
          "type": "string"
        },
        {
          "indexed": false,
          "internalType": "string",
          "name": "documentId",
          "type": "string"
        }
      ],
      "name": "SignatureRequested",
      "type": "event"
    },
    {
      "anonymous": false,
      "inputs": [
        {
          "indexed": false,
          "internalType": "address",
          "name": "account",
          "type": "address"
        }
      ],
      "name": "Unpaused",
      "type": "event"
    },
    {
      "inputs": [
        {
          "internalType": "string",
          "name": "proposerDID",
          "type": "string"
        },
        {
          "internalType": "address[]",
          "name": "recipientAddresses",
          "type": "address[]"
        },
        {
          "internalType": "string[]",
          "name": "recipientDIDs",
          "type": "string[]"
        },
        {
          "internalType": "string",
          "name": "fileHash",
          "type": "string"
        },
        {
          "internalType": "uint256",
          "name": "requiredQuorum",
          "type": "uint256"
        },
        {
          "internalType": "uint256",
          "name": "templateId",
          "type": "uint256"
        },
        {
          "internalType": "bytes",
          "name": "metadata",
          "type": "bytes"
        },
        {
          "internalType": "uint256",
          "name": "validUntil",
          "type": "uint256"
        }
      ],
      "name": "addDocument",
      "outputs": [
        {
          "internalType": "string",
          "name": "documentId",
          "type": "string"
        }
      ],
      "stateMutability": "nonpayable",
      "type": "function"
    },
    {
      "inputs": [
        {
          "internalType": "string",
          "name": "",
          "type": "string"
        }
      ],
      "name": "anchors",
      "outputs": [
        {
          "internalType": "address",
          "name": "proposer",
          "type": "address"
        },
        {
          "internalType": "string",
          "name": "proposerDID",
          "type": "string"
        },
        {
          "internalType": "string",
          "name": "fileHash",
          "type": "string"
        },
        {
          "internalType": "uint256",
          "name": "requiredQuorum",
          "type": "uint256"
        },
        {
          "internalType": "uint256",
          "name": "templateId",
          "type": "uint256"
        },
        {
          "internalType": "bytes",
          "name": "metadata",
          "type": "bytes"
        },
        {
          "internalType": "uint256",
          "name": "validUntil",
          "type": "uint256"
        },
        {
          "internalType": "enum SmartAgreementAnchoring.SmartAgreementState",
          "name": "status",
          "type": "uint8"
        },
        {
          "components": [
            {
              "internalType": "uint256",
              "name": "_value",
              "type": "uint256"
            }
          ],
          "internalType": "struct Counters.Counter",
          "name": "acceptedCounterparties",
          "type": "tuple"
        },
        {
          "components": [
            {
              "internalType": "uint256",
              "name": "_value",
              "type": "uint256"
            }
          ],
          "internalType": "struct Counters.Counter",
          "name": "declinedCounterparties",
          "type": "tuple"
        }
      ],
      "stateMutability": "view",
      "type": "function"
    },
    {
      "inputs": [
        {
          "internalType": "string",
          "name": "",
          "type": "string"
        },
        {
          "internalType": "address",
          "name": "",
          "type": "address"
        }
      ],
      "name": "counterparties",
      "outputs": [
        {
          "internalType": "string",
          "name": "documentId",
          "type": "string"
        },
        {
          "internalType": "address",
          "name": "recipient",
          "type": "address"
        },
        {
          "internalType": "string",
          "name": "did",
          "type": "string"
        },
        {
          "internalType": "enum SmartAgreementAnchoring.AcceptanceState",
          "name": "acceptanceState",
          "type": "uint8"
        }
      ],
      "stateMutability": "view",
      "type": "function"
    },
    {
      "inputs": [],
      "name": "escrow",
      "outputs": [
        {
          "internalType": "contract TokenEscrow",
          "name": "",
          "type": "address"
        }
      ],
      "stateMutability": "view",
      "type": "function"
    },
    {
      "inputs": [],
      "name": "fee",
      "outputs": [
        {
          "internalType": "uint256",
          "name": "",
          "type": "uint256"
        }
      ],
      "stateMutability": "view",
      "type": "function"
    },
    {
      "inputs": [
        {
          "internalType": "string",
          "name": "documentId",
          "type": "string"
        }
      ],
      "name": "getCounterpartyAddresses",
      "outputs": [
        {
          "internalType": "address[]",
          "name": "addresses",
          "type": "address[]"
        }
      ],
      "stateMutability": "view",
      "type": "function"
    },
    {
      "inputs": [
        {
          "internalType": "string",
          "name": "documentId",
          "type": "string"
        }
      ],
      "name": "isAgreementExpired",
      "outputs": [
        {
          "internalType": "bool",
          "name": "isExpired",
          "type": "bool"
        }
      ],
      "stateMutability": "view",
      "type": "function"
    },
    {
      "inputs": [
        {
          "internalType": "string",
          "name": "documentId",
          "type": "string"
        },
        {
          "internalType": "address",
          "name": "counterparty",
          "type": "address"
        }
      ],
      "name": "isCounterparty",
      "outputs": [
        {
          "internalType": "bool",
          "name": "isAgreementCounterparty",
          "type": "bool"
        }
      ],
      "stateMutability": "view",
      "type": "function"
    },
    {
      "inputs": [],
      "name": "owner",
      "outputs": [
        {
          "internalType": "address",
          "name": "",
          "type": "address"
        }
      ],
      "stateMutability": "view",
      "type": "function"
    },
    {
      "inputs": [],
      "name": "pause",
      "outputs": [
        {
          "internalType": "bool",
          "name": "isPaused",
          "type": "bool"
        }
      ],
      "stateMutability": "nonpayable",
      "type": "function"
    },
    {
      "inputs": [],
      "name": "paused",
      "outputs": [
        {
          "internalType": "bool",
          "name": "",
          "type": "bool"
        }
      ],
      "stateMutability": "view",
      "type": "function"
    },
    {
      "inputs": [],
      "name": "renounceOwnership",
      "outputs": [],
      "stateMutability": "nonpayable",
      "type": "function"
    },
    {
      "inputs": [
        {
          "internalType": "uint256",
          "name": "_fee",
          "type": "uint256"
        }
      ],
      "name": "setFee",
      "outputs": [],
      "stateMutability": "nonpayable",
      "type": "function"
    },
    {
      "inputs": [
        {
          "internalType": "string",
          "name": "documentId",
          "type": "string"
        },
        {
          "internalType": "bool",
          "name": "accept",
          "type": "bool"
        }
      ],
      "name": "signAgreement",
      "outputs": [
        {
          "internalType": "uint256",
          "name": "acceptedCount",
          "type": "uint256"
        },
        {
          "internalType": "uint256",
          "name": "declinedCount",
          "type": "uint256"
        }
      ],
      "stateMutability": "nonpayable",
      "type": "function"
    },
    {
      "inputs": [
        {
          "internalType": "address",
          "name": "newOwner",
          "type": "address"
        }
      ],
      "name": "transferOwnership",
      "outputs": [],
      "stateMutability": "nonpayable",
      "type": "function"
    },
    {
      "inputs": [],
      "name": "unpause",
      "outputs": [
        {
          "internalType": "bool",
          "name": "isPaused",
          "type": "bool"
        }
      ],
      "stateMutability": "nonpayable",
      "type": "function"
    },
    {
      "inputs": [],
      "name": "withdrawFromEscrow",
      "outputs": [
        {
          "internalType": "uint256",
          "name": "amount",
          "type": "uint256"
        }
      ],
      "stateMutability": "nonpayable",
      "type": "function"
    }
  ],
  "bytecode": "0x60a06040523480156200001157600080fd5b5060405162004f1d38038062004f1d8339818101604052810190620000379190620001c3565b6000620000496200017f60201b60201c565b9050806000806101000a81548173ffffffffffffffffffffffffffffffffffffffff021916908373ffffffffffffffffffffffffffffffffffffffff1602179055508073ffffffffffffffffffffffffffffffffffffffff16600073ffffffffffffffffffffffffffffffffffffffff167f8be0079c531659141344cd1fd0a4f28419497f9722a3daafe3b4186f6b6457e060405160405180910390a35060008060146101000a81548160ff02191690831515021790555081604051620001109062000187565b6200011c91906200021b565b604051809103906000f08015801562000139573d6000803e3d6000fd5b5073ffffffffffffffffffffffffffffffffffffffff1660808173ffffffffffffffffffffffffffffffffffffffff1660601b81525050806003819055505050620002af565b600033905090565b6114bb8062003a6283390190565b600081519050620001a6816200027b565b92915050565b600081519050620001bd8162000295565b92915050565b60008060408385031215620001dd57620001dc62000276565b5b6000620001ed8582860162000195565b92505060206200020085828601620001ac565b9150509250929050565b620002158162000238565b82525050565b60006020820190506200023260008301846200020a565b92915050565b600062000245826200024c565b9050919050565b600073ffffffffffffffffffffffffffffffffffffffff82169050919050565b6000819050919050565b600080fd5b620002868162000238565b81146200029257600080fd5b50565b620002a0816200026c565b8114620002ac57600080fd5b50565b60805160601c61377f620002e360003960008181610b34015281816114b40152818161188d0152611f33015261377f6000f3fe608060405234801561001057600080fd5b506004361061010b5760003560e01c80638da5cb5b116100a2578063c7236a9511610071578063c7236a95146102c6578063ddca3f43146102f6578063df20ab2914610314578063e2fdcc1714610347578063f2fde38b146103655761010b565b80638da5cb5b14610221578063b0fc84eb1461023f578063b725d6721461026f578063be8b68c41461028d5761010b565b8063715018a6116100de578063715018a614610198578063781e7a6f146101a25780637ab0a96e146101d25780638456cb59146102035761010b565b80633f4ba83a14610110578063563ad9f71461012e5780635c975abb1461015e57806369fe0e2d1461017c575b600080fd5b610118610381565b6040516101259190612dea565b60405180910390f35b610148600480360381019061014391906126dc565b61040e565b6040516101559190612dc8565b60405180910390f35b610166610570565b6040516101739190612dea565b60405180910390f35b6101966004803603810190610191919061291f565b610586565b005b6101a0610645565b005b6101bc60048036038101906101b79190612725565b61077f565b6040516101c99190612dea565b60405180910390f35b6101ec60048036038101906101e791906128c3565b610837565b6040516101fa92919061305c565b60405180910390f35b61020b610f29565b6040516102189190612dea565b60405180910390f35b610229610fb6565b6040516102369190612cbe565b60405180910390f35b610259600480360381019061025491906126dc565b610fdf565b6040516102669190612dea565b60405180910390f35b610277611434565b6040516102849190613041565b60405180910390f35b6102a760048036038101906102a291906126dc565b611562565b6040516102bd9a99989796959493929190612cd9565b60405180910390f35b6102e060048036038101906102db9190612781565b6117b9565b6040516102ed9190612e20565b60405180910390f35b6102fe611d9b565b60405161030b9190613041565b60405180910390f35b61032e60048036038101906103299190612725565b611da1565b60405161033e9493929190612e42565b60405180910390f35b61034f611f31565b60405161035c9190612e05565b60405180910390f35b61037f600480360381019061037a91906126af565b611f55565b005b600061038b6120fe565b73ffffffffffffffffffffffffffffffffffffffff166103a9610fb6565b73ffffffffffffffffffffffffffffffffffffffff16146103ff576040517f08c379a00000000000000000000000000000000000000000000000000000000081526004016103f690613001565b60405180910390fd5b610407612106565b6000905090565b606081600073ffffffffffffffffffffffffffffffffffffffff166001826040516104399190612ca7565b908152602001604051809103902060000160009054906101000a900473ffffffffffffffffffffffffffffffffffffffff1673ffffffffffffffffffffffffffffffffffffffff1614156104c2576040517f08c379a00000000000000000000000000000000000000000000000000000000081526004016104b990612fc1565b60405180910390fd5b6001836040516104d29190612ca7565b908152602001604051809103902060080180548060200260200160405190810160405280929190818152602001828054801561056357602002820191906000526020600020905b8160009054906101000a900473ffffffffffffffffffffffffffffffffffffffff1673ffffffffffffffffffffffffffffffffffffffff1681526020019060010190808311610519575b5050505050915050919050565b60008060149054906101000a900460ff16905090565b61058e6120fe565b73ffffffffffffffffffffffffffffffffffffffff166105ac610fb6565b73ffffffffffffffffffffffffffffffffffffffff1614610602576040517f08c379a00000000000000000000000000000000000000000000000000000000081526004016105f990613001565b60405180910390fd5b806003819055507f6bbc57480a46553fa4d156ce702beef5f3ad66303b0ed1a5d4cb44966c6584c360035460405161063a9190613041565b60405180910390a150565b61064d6120fe565b73ffffffffffffffffffffffffffffffffffffffff1661066b610fb6565b73ffffffffffffffffffffffffffffffffffffffff16146106c1576040517f08c379a00000000000000000000000000000000000000000000000000000000081526004016106b890613001565b60405180910390fd5b600073ffffffffffffffffffffffffffffffffffffffff1660008054906101000a900473ffffffffffffffffffffffffffffffffffffffff1673ffffffffffffffffffffffffffffffffffffffff167f8be0079c531659141344cd1fd0a4f28419497f9722a3daafe3b4186f6b6457e060405160405180910390a360008060006101000a81548173ffffffffffffffffffffffffffffffffffffffff021916908373ffffffffffffffffffffffffffffffffffffffff160217905550565b60008073ffffffffffffffffffffffffffffffffffffffff166002846040516107a89190612ca7565b908152602001604051809103902060008473ffffffffffffffffffffffffffffffffffffffff1673ffffffffffffffffffffffffffffffffffffffff16815260200190815260200160002060010160009054906101000a900473ffffffffffffffffffffffffffffffffffffffff1673ffffffffffffffffffffffffffffffffffffffff161415905092915050565b600080610842610570565b15610882576040517f08c379a000000000000000000000000000000000000000000000000000000000815260040161087990612f81565b60405180910390fd5b83600073ffffffffffffffffffffffffffffffffffffffff166001826040516108ab9190612ca7565b908152602001604051809103902060000160009054906101000a900473ffffffffffffffffffffffffffffffffffffffff1673ffffffffffffffffffffffffffffffffffffffff161415610934576040517f08c379a000000000000000000000000000000000000000000000000000000000815260040161092b90612fc1565b60405180910390fd5b60006001866040516109469190612ca7565b908152602001604051809103902090506000600281111561096a576109696133e7565b5b8160070160009054906101000a900460ff16600281111561098e5761098d6133e7565b5b146109ce576040517f08c379a00000000000000000000000000000000000000000000000000000000081526004016109c590612fa1565b60405180910390fd5b6109d786610fdf565b15610a17576040517f08c379a0000000000000000000000000000000000000000000000000000000008152600401610a0e90613021565b60405180910390fd5b610a21863361077f565b610a60576040517f08c379a0000000000000000000000000000000000000000000000000000000008152600401610a5790612f41565b60405180910390fd5b60006002811115610a7457610a736133e7565b5b600287604051610a849190612ca7565b908152602001604051809103902060003373ffffffffffffffffffffffffffffffffffffffff1673ffffffffffffffffffffffffffffffffffffffff16815260200190815260200160002060030160009054906101000a900460ff166002811115610af257610af16133e7565b5b14610b32576040517f08c379a0000000000000000000000000000000000000000000000000000000008152600401610b2990612fe1565b60405180910390fd5b7f000000000000000000000000000000000000000000000000000000000000000073ffffffffffffffffffffffffffffffffffffffff1663bfe07da633600354896040518463ffffffff1660e01b8152600401610b9193929190612d8a565b600060405180830381600087803b158015610bab57600080fd5b505af1158015610bbf573d6000803e3d6000fd5b505050508415610d6e576001600287604051610bdb9190612ca7565b908152602001604051809103902060003373ffffffffffffffffffffffffffffffffffffffff1673ffffffffffffffffffffffffffffffffffffffff16815260200190815260200160002060030160006101000a81548160ff02191690836002811115610c4b57610c4a6133e7565b5b0217905550610c5c816009016121a7565b3373ffffffffffffffffffffffffffffffffffffffff1686604051610c819190612ca7565b60405180910390207f32f22defe58ca91bec6f3d060e385799e69877bd80d3f8cd95a9018b58fc71cb88604051610cb89190612e20565b60405180910390a36000610cce826009016121bd565b905081600301548110610d565760018260070160006101000a81548160ff02191690836002811115610d0357610d026133e7565b5b021790555086604051610d169190612ca7565b60405180910390207f83866350ec6086627ed8b01b01a18b5626360c3a14f8d7ba0c34d6fdd57cf38788604051610d4d9190612e20565b60405180910390a25b80610d6383600a016121bd565b945094505050610f21565b60028087604051610d7f9190612ca7565b908152602001604051809103902060003373ffffffffffffffffffffffffffffffffffffffff1673ffffffffffffffffffffffffffffffffffffffff16815260200190815260200160002060030160006101000a81548160ff02191690836002811115610def57610dee6133e7565b5b0217905550610e0081600a016121a7565b3373ffffffffffffffffffffffffffffffffffffffff1686604051610e259190612ca7565b60405180910390207ff79b52f5be37fd584ae1e5c43c6e78f6182f357b3a4b9a37d9fc5a551265a40e88604051610e5c9190612e20565b60405180910390a36000610e7282600a016121bd565b905081600301548260080180549050610e8b91906131e0565b811115610f0d5760028260070160006101000a81548160ff02191690836002811115610eba57610eb96133e7565b5b021790555086604051610ecd9190612ca7565b60405180910390207ff56cf33cb3031ca5206286df2959ac83827c3895f987235f476aa7fe2b57b74288604051610f049190612e20565b60405180910390a25b610f19826009016121bd565b819450945050505b509250929050565b6000610f336120fe565b73ffffffffffffffffffffffffffffffffffffffff16610f51610fb6565b73ffffffffffffffffffffffffffffffffffffffff1614610fa7576040517f08c379a0000000000000000000000000000000000000000000000000000000008152600401610f9e90613001565b60405180910390fd5b610faf6121cb565b6001905090565b60008060009054906101000a900473ffffffffffffffffffffffffffffffffffffffff16905090565b600081600073ffffffffffffffffffffffffffffffffffffffff1660018260405161100a9190612ca7565b908152602001604051809103902060000160009054906101000a900473ffffffffffffffffffffffffffffffffffffffff1673ffffffffffffffffffffffffffffffffffffffff161415611093576040517f08c379a000000000000000000000000000000000000000000000000000000000815260040161108a90612fc1565b60405180910390fd5b60006001846040516110a59190612ca7565b9081526020016040518091039020604051806101600160405290816000820160009054906101000a900473ffffffffffffffffffffffffffffffffffffffff1673ffffffffffffffffffffffffffffffffffffffff1673ffffffffffffffffffffffffffffffffffffffff1681526020016001820180546111259061330c565b80601f01602080910402602001604051908101604052809291908181526020018280546111519061330c565b801561119e5780601f106111735761010080835404028352916020019161119e565b820191906000526020600020905b81548152906001019060200180831161118157829003601f168201915b505050505081526020016002820180546111b79061330c565b80601f01602080910402602001604051908101604052809291908181526020018280546111e39061330c565b80156112305780601f1061120557610100808354040283529160200191611230565b820191906000526020600020905b81548152906001019060200180831161121357829003601f168201915b50505050508152602001600382015481526020016004820154815260200160058201805461125d9061330c565b80601f01602080910402602001604051908101604052809291908181526020018280546112899061330c565b80156112d65780601f106112ab576101008083540402835291602001916112d6565b820191906000526020600020905b8154815290600101906020018083116112b957829003601f168201915b50505050508152602001600682015481526020016007820160009054906101000a900460ff16600281111561130e5761130d6133e7565b5b60028111156113205761131f6133e7565b5b8152602001600882018054806020026020016040519081016040528092919081815260200182805480156113a957602002820191906000526020600020905b8160009054906101000a900473ffffffffffffffffffffffffffffffffffffffff1673ffffffffffffffffffffffffffffffffffffffff168152602001906001019080831161135f575b50505050508152602001600982016040518060200160405290816000820154815250508152602001600a8201604051806020016040529081600082015481525050815250509050428160c0015110801561142b575060006002811115611412576114116133e7565b5b8160e001516002811115611429576114286133e7565b5b145b92505050919050565b600061143e6120fe565b73ffffffffffffffffffffffffffffffffffffffff1661145c610fb6565b73ffffffffffffffffffffffffffffffffffffffff16146114b2576040517f08c379a00000000000000000000000000000000000000000000000000000000081526004016114a990613001565b60405180910390fd5b7f000000000000000000000000000000000000000000000000000000000000000073ffffffffffffffffffffffffffffffffffffffff166389476069336040518263ffffffff1660e01b815260040161150b9190612cbe565b602060405180830381600087803b15801561152557600080fd5b505af1158015611539573d6000803e3d6000fd5b505050506040513d601f19601f8201168201806040525081019061155d919061294c565b905090565b6001818051602081018201805184825260208301602085012081835280955050505050506000915090508060000160009054906101000a900473ffffffffffffffffffffffffffffffffffffffff16908060010180546115c19061330c565b80601f01602080910402602001604051908101604052809291908181526020018280546115ed9061330c565b801561163a5780601f1061160f5761010080835404028352916020019161163a565b820191906000526020600020905b81548152906001019060200180831161161d57829003601f168201915b50505050509080600201805461164f9061330c565b80601f016020809104026020016040519081016040528092919081815260200182805461167b9061330c565b80156116c85780601f1061169d576101008083540402835291602001916116c8565b820191906000526020600020905b8154815290600101906020018083116116ab57829003601f168201915b5050505050908060030154908060040154908060050180546116e99061330c565b80601f01602080910402602001604051908101604052809291908181526020018280546117159061330c565b80156117625780601f1061173757610100808354040283529160200191611762565b820191906000526020600020905b81548152906001019060200180831161174557829003601f168201915b5050505050908060060154908060070160009054906101000a900460ff1690806009016040518060200160405290816000820154815250509080600a0160405180602001604052908160008201548152505090508a565b60606117c3610570565b15611803576040517f08c379a00000000000000000000000000000000000000000000000000000000081526004016117fa90612f81565b60405180910390fd5b8751875114611847576040517f08c379a000000000000000000000000000000000000000000000000000000000815260040161183e90612f61565b60405180910390fd5b848751101561188b576040517f08c379a000000000000000000000000000000000000000000000000000000000815260040161188290612ee1565b60405180910390fd5b7f000000000000000000000000000000000000000000000000000000000000000073ffffffffffffffffffffffffffffffffffffffff1663bfe07da633600354896040518463ffffffff1660e01b81526004016118ea93929190612d8a565b600060405180830381600087803b15801561190457600080fd5b505af1158015611918573d6000803e3d6000fd5b5050505060005b8851811015611b3d57600088828151811061193d5761193c613445565b5b6020026020010151905060008a838151811061195c5761195b613445565b5b6020026020010151905060405180608001604052808a81526020018273ffffffffffffffffffffffffffffffffffffffff168152602001838152602001600060028111156119ad576119ac6133e7565b5b81525060028a6040516119c09190612ca7565b908152602001604051809103902060008373ffffffffffffffffffffffffffffffffffffffff1673ffffffffffffffffffffffffffffffffffffffff1681526020019081526020016000206000820151816000019080519060200190611a2792919061226e565b5060208201518160010160006101000a81548173ffffffffffffffffffffffffffffffffffffffff021916908373ffffffffffffffffffffffffffffffffffffffff1602179055506040820151816002019080519060200190611a8b92919061226e565b5060608201518160030160006101000a81548160ff02191690836002811115611ab757611ab66133e7565b5b02179055509050508073ffffffffffffffffffffffffffffffffffffffff163373ffffffffffffffffffffffffffffffffffffffff167fb530d662b6e8e270478d95069e341f70deb680d2f36dfc45288cff148e6a56308e858d604051611b2093929190612e95565b60405180910390a350508080611b359061336f565b91505061191f565b506040518061016001604052803373ffffffffffffffffffffffffffffffffffffffff1681526020018a815260200187815260200186815260200185815260200184815260200183815260200160006002811115611b9e57611b9d6133e7565b5b815260200189815260200160405180602001604052806000815250815260200160405180602001604052806000815250815250600187604051611be19190612ca7565b908152602001604051809103902060008201518160000160006101000a81548173ffffffffffffffffffffffffffffffffffffffff021916908373ffffffffffffffffffffffffffffffffffffffff1602179055506020820151816001019080519060200190611c5292919061226e565b506040820151816002019080519060200190611c6f92919061226e565b50606082015181600301556080820151816004015560a0820151816005019080519060200190611ca09291906122f4565b5060c0820151816006015560e08201518160070160006101000a81548160ff02191690836002811115611cd657611cd56133e7565b5b0217905550610100820151816008019080519060200190611cf892919061237a565b506101208201518160090160008201518160000155505061014082015181600a0160008201518160000155505090505088604051611d369190612ca7565b60405180910390203373ffffffffffffffffffffffffffffffffffffffff167f31d0ccabff610365ff3d62eb69f00e11ef6d5814df35e7a75a27ee1950c1a36688604051611d849190612e20565b60405180910390a385905098975050505050505050565b60035481565b60028280516020810182018051848252602083016020850120818352809550505050505060205280600052604060002060009150915050806000018054611de79061330c565b80601f0160208091040260200160405190810160405280929190818152602001828054611e139061330c565b8015611e605780601f10611e3557610100808354040283529160200191611e60565b820191906000526020600020905b815481529060010190602001808311611e4357829003601f168201915b5050505050908060010160009054906101000a900473ffffffffffffffffffffffffffffffffffffffff1690806002018054611e9b9061330c565b80601f0160208091040260200160405190810160405280929190818152602001828054611ec79061330c565b8015611f145780601f10611ee957610100808354040283529160200191611f14565b820191906000526020600020905b815481529060010190602001808311611ef757829003601f168201915b5050505050908060030160009054906101000a900460ff16905084565b7f000000000000000000000000000000000000000000000000000000000000000081565b611f5d6120fe565b73ffffffffffffffffffffffffffffffffffffffff16611f7b610fb6565b73ffffffffffffffffffffffffffffffffffffffff1614611fd1576040517f08c379a0000000000000000000000000000000000000000000000000000000008152600401611fc890613001565b60405180910390fd5b600073ffffffffffffffffffffffffffffffffffffffff168173ffffffffffffffffffffffffffffffffffffffff161415612041576040517f08c379a000000000000000000000000000000000000000000000000000000000815260040161203890612f21565b60405180910390fd5b8073ffffffffffffffffffffffffffffffffffffffff1660008054906101000a900473ffffffffffffffffffffffffffffffffffffffff1673ffffffffffffffffffffffffffffffffffffffff167f8be0079c531659141344cd1fd0a4f28419497f9722a3daafe3b4186f6b6457e060405160405180910390a3806000806101000a81548173ffffffffffffffffffffffffffffffffffffffff021916908373ffffffffffffffffffffffffffffffffffffffff16021790555050565b600033905090565b61210e610570565b61214d576040517f08c379a000000000000000000000000000000000000000000000000000000000815260040161214490612f01565b60405180910390fd5b60008060146101000a81548160ff0219169083151502179055507f5db9ee0a495bf2e6ff9c91a7834c1ba4fdd244a5e8aa4e537bd38aeae4b073aa6121906120fe565b60405161219d9190612cbe565b60405180910390a1565b6001816000016000828254019250508190555050565b600081600001549050919050565b6121d3610570565b15612213576040517f08c379a000000000000000000000000000000000000000000000000000000000815260040161220a90612f81565b60405180910390fd5b6001600060146101000a81548160ff0219169083151502179055507f62e78cea01bee320cd4e420270b5ea74000d11b0c9f74754ebdbfc544b05a2586122576120fe565b6040516122649190612cbe565b60405180910390a1565b82805461227a9061330c565b90600052602060002090601f01602090048101928261229c57600085556122e3565b82601f106122b557805160ff19168380011785556122e3565b828001600101855582156122e3579182015b828111156122e25782518255916020019190600101906122c7565b5b5090506122f09190612404565b5090565b8280546123009061330c565b90600052602060002090601f0160209004810192826123225760008555612369565b82601f1061233b57805160ff1916838001178555612369565b82800160010185558215612369579182015b8281111561236857825182559160200191906001019061234d565b5b5090506123769190612404565b5090565b8280548282559060005260206000209081019282156123f3579160200282015b828111156123f25782518260006101000a81548173ffffffffffffffffffffffffffffffffffffffff021916908373ffffffffffffffffffffffffffffffffffffffff1602179055509160200191906001019061239a565b5b5090506124009190612404565b5090565b5b8082111561241d576000816000905550600101612405565b5090565b600061243461242f846130aa565b613085565b90508083825260208201905082856020860282011115612457576124566134a8565b5b60005b85811015612487578161246d88826125a3565b84526020840193506020830192505060018101905061245a565b5050509392505050565b60006124a461249f846130d6565b613085565b905080838252602082019050828560208602820111156124c7576124c66134a8565b5b60005b8581101561251557813567ffffffffffffffff8111156124ed576124ec6134a3565b5b8086016124fa8982612657565b855260208501945060208401935050506001810190506124ca565b5050509392505050565b600061253261252d84613102565b613085565b90508281526020810184848401111561254e5761254d6134ad565b5b6125598482856132ca565b509392505050565b600061257461256f84613133565b613085565b9050828152602081018484840111156125905761258f6134ad565b5b61259b8482856132ca565b509392505050565b6000813590506125b281613704565b92915050565b600082601f8301126125cd576125cc6134a3565b5b81356125dd848260208601612421565b91505092915050565b600082601f8301126125fb576125fa6134a3565b5b813561260b848260208601612491565b91505092915050565b6000813590506126238161371b565b92915050565b600082601f83011261263e5761263d6134a3565b5b813561264e84826020860161251f565b91505092915050565b600082601f83011261266c5761266b6134a3565b5b813561267c848260208601612561565b91505092915050565b60008135905061269481613732565b92915050565b6000815190506126a981613732565b92915050565b6000602082840312156126c5576126c46134b7565b5b60006126d3848285016125a3565b91505092915050565b6000602082840312156126f2576126f16134b7565b5b600082013567ffffffffffffffff8111156127105761270f6134b2565b5b61271c84828501612657565b91505092915050565b6000806040838503121561273c5761273b6134b7565b5b600083013567ffffffffffffffff81111561275a576127596134b2565b5b61276685828601612657565b9250506020612777858286016125a3565b9150509250929050565b600080600080600080600080610100898b0312156127a2576127a16134b7565b5b600089013567ffffffffffffffff8111156127c0576127bf6134b2565b5b6127cc8b828c01612657565b985050602089013567ffffffffffffffff8111156127ed576127ec6134b2565b5b6127f98b828c016125b8565b975050604089013567ffffffffffffffff81111561281a576128196134b2565b5b6128268b828c016125e6565b965050606089013567ffffffffffffffff811115612847576128466134b2565b5b6128538b828c01612657565b95505060806128648b828c01612685565b94505060a06128758b828c01612685565b93505060c089013567ffffffffffffffff811115612896576128956134b2565b5b6128a28b828c01612629565b92505060e06128b38b828c01612685565b9150509295985092959890939650565b600080604083850312156128da576128d96134b7565b5b600083013567ffffffffffffffff8111156128f8576128f76134b2565b5b61290485828601612657565b925050602061291585828601612614565b9150509250929050565b600060208284031215612935576129346134b7565b5b600061294384828501612685565b91505092915050565b600060208284031215612962576129616134b7565b5b60006129708482850161269a565b91505092915050565b60006129858383612991565b60208301905092915050565b61299a81613214565b82525050565b6129a981613214565b82525050565b60006129ba82613174565b6129c481856131a2565b93506129cf83613164565b8060005b83811015612a005781516129e78882612979565b97506129f283613195565b9250506001810190506129d3565b5085935050505092915050565b612a1681613226565b82525050565b6000612a278261317f565b612a3181856131b3565b9350612a418185602086016132d9565b612a4a816134bc565b840191505092915050565b612a5e81613282565b82525050565b612a6d816132a6565b82525050565b612a7c816132b8565b82525050565b6000612a8d8261318a565b612a9781856131c4565b9350612aa78185602086016132d9565b612ab0816134bc565b840191505092915050565b6000612ac68261318a565b612ad081856131d5565b9350612ae08185602086016132d9565b80840191505092915050565b6000612af96017836131c4565b9150612b04826134cd565b602082019050919050565b6000612b1c6014836131c4565b9150612b27826134f6565b602082019050919050565b6000612b3f6026836131c4565b9150612b4a8261351f565b604082019050919050565b6000612b62601f836131c4565b9150612b6d8261356e565b602082019050919050565b6000612b856018836131c4565b9150612b9082613597565b602082019050919050565b6000612ba86010836131c4565b9150612bb3826135c0565b602082019050919050565b6000612bcb6016836131c4565b9150612bd6826135e9565b602082019050919050565b6000612bee6021836131c4565b9150612bf982613612565b604082019050919050565b6000612c11601b836131c4565b9150612c1c82613661565b602082019050919050565b6000612c346020836131c4565b9150612c3f8261368a565b602082019050919050565b6000612c57601b836131c4565b9150612c62826136b3565b602082019050919050565b602082016000820151612c836000850182612c89565b50505050565b612c9281613278565b82525050565b612ca181613278565b82525050565b6000612cb38284612abb565b915081905092915050565b6000602082019050612cd360008301846129a0565b92915050565b600061014082019050612cef600083018d6129a0565b8181036020830152612d01818c612a82565b90508181036040830152612d15818b612a82565b9050612d24606083018a612c98565b612d316080830189612c98565b81810360a0830152612d438188612a1c565b9050612d5260c0830187612c98565b612d5f60e0830186612a73565b612d6d610100830185612c6d565b612d7b610120830184612c6d565b9b9a5050505050505050505050565b6000606082019050612d9f60008301866129a0565b612dac6020830185612c98565b8181036040830152612dbe8184612a82565b9050949350505050565b60006020820190508181036000830152612de281846129af565b905092915050565b6000602082019050612dff6000830184612a0d565b92915050565b6000602082019050612e1a6000830184612a55565b92915050565b60006020820190508181036000830152612e3a8184612a82565b905092915050565b60006080820190508181036000830152612e5c8187612a82565b9050612e6b60208301866129a0565b8181036040830152612e7d8185612a82565b9050612e8c6060830184612a64565b95945050505050565b60006060820190508181036000830152612eaf8186612a82565b90508181036020830152612ec38185612a82565b90508181036040830152612ed78184612a82565b9050949350505050565b60006020820190508181036000830152612efa81612aec565b9050919050565b60006020820190508181036000830152612f1a81612b0f565b9050919050565b60006020820190508181036000830152612f3a81612b32565b9050919050565b60006020820190508181036000830152612f5a81612b55565b9050919050565b60006020820190508181036000830152612f7a81612b78565b9050919050565b60006020820190508181036000830152612f9a81612b9b565b9050919050565b60006020820190508181036000830152612fba81612bbe565b9050919050565b60006020820190508181036000830152612fda81612be1565b9050919050565b60006020820190508181036000830152612ffa81612c04565b9050919050565b6000602082019050818103600083015261301a81612c27565b9050919050565b6000602082019050818103600083015261303a81612c4a565b9050919050565b60006020820190506130566000830184612c98565b92915050565b60006040820190506130716000830185612c98565b61307e6020830184612c98565b9392505050565b600061308f6130a0565b905061309b828261333e565b919050565b6000604051905090565b600067ffffffffffffffff8211156130c5576130c4613474565b5b602082029050602081019050919050565b600067ffffffffffffffff8211156130f1576130f0613474565b5b602082029050602081019050919050565b600067ffffffffffffffff82111561311d5761311c613474565b5b613126826134bc565b9050602081019050919050565b600067ffffffffffffffff82111561314e5761314d613474565b5b613157826134bc565b9050602081019050919050565b6000819050602082019050919050565b600081519050919050565b600081519050919050565b600081519050919050565b6000602082019050919050565b600082825260208201905092915050565b600082825260208201905092915050565b600082825260208201905092915050565b600081905092915050565b60006131eb82613278565b91506131f683613278565b925082821015613209576132086133b8565b5b828203905092915050565b600061321f82613258565b9050919050565b60008115159050919050565b6000819050613240826136dc565b919050565b6000819050613253826136f0565b919050565b600073ffffffffffffffffffffffffffffffffffffffff82169050919050565b6000819050919050565b600061328d82613294565b9050919050565b600061329f82613258565b9050919050565b60006132b182613232565b9050919050565b60006132c382613245565b9050919050565b82818337600083830152505050565b60005b838110156132f75780820151818401526020810190506132dc565b83811115613306576000848401525b50505050565b6000600282049050600182168061332457607f821691505b6020821081141561333857613337613416565b5b50919050565b613347826134bc565b810181811067ffffffffffffffff8211171561336657613365613474565b5b80604052505050565b600061337a82613278565b91507fffffffffffffffffffffffffffffffffffffffffffffffffffffffffffffffff8214156133ad576133ac6133b8565b5b600182019050919050565b7f4e487b7100000000000000000000000000000000000000000000000000000000600052601160045260246000fd5b7f4e487b7100000000000000000000000000000000000000000000000000000000600052602160045260246000fd5b7f4e487b7100000000000000000000000000000000000000000000000000000000600052602260045260246000fd5b7f4e487b7100000000000000000000000000000000000000000000000000000000600052603260045260246000fd5b7f4e487b7100000000000000000000000000000000000000000000000000000000600052604160045260246000fd5b600080fd5b600080fd5b600080fd5b600080fd5b600080fd5b6000601f19601f8301169050919050565b7f416e63686f723a2051756f72756d20746f6f2068696768000000000000000000600082015250565b7f5061757361626c653a206e6f7420706175736564000000000000000000000000600082015250565b7f4f776e61626c653a206e6577206f776e657220697320746865207a65726f206160008201527f6464726573730000000000000000000000000000000000000000000000000000602082015250565b7f416e63686f72696e673a206d75737420626520636f756e746572706172747900600082015250565b7f416e63686f723a20496e636f7272656374206c656e6774680000000000000000600082015250565b7f5061757361626c653a2070617573656400000000000000000000000000000000600082015250565b7f416e63686f72696e673a2077726f6e6720737461746500000000000000000000600082015250565b7f416e63686f72696e673a20446f63756d656e7420646f65736e2774206578697360008201527f7400000000000000000000000000000000000000000000000000000000000000602082015250565b7f416e63686f723a2063616e6e6f7420616e737765722074776963650000000000600082015250565b7f4f776e61626c653a2063616c6c6572206973206e6f7420746865206f776e6572600082015250565b7f416e63686f72696e673a20436f6e747261637420657870697265640000000000600082015250565b600381106136ed576136ec6133e7565b5b50565b60038110613701576137006133e7565b5b50565b61370d81613214565b811461371857600080fd5b50565b61372481613226565b811461372f57600080fd5b50565b61373b81613278565b811461374657600080fd5b5056fea2646970667358221220e00e10175d8e372fa414288dc0c515cdbd11ba3756f153fdbb2ec74daf1ba29064736f6c6343000805003360806040523480156200001157600080fd5b50604051620014bb380380620014bb83398181016040528101906200003791906200014e565b6000620000496200012f60201b60201c565b9050806000806101000a81548173ffffffffffffffffffffffffffffffffffffffff021916908373ffffffffffffffffffffffffffffffffffffffff1602179055508073ffffffffffffffffffffffffffffffffffffffff16600073ffffffffffffffffffffffffffffffffffffffff167f8be0079c531659141344cd1fd0a4f28419497f9722a3daafe3b4186f6b6457e060405160405180910390a35080600160006101000a81548173ffffffffffffffffffffffffffffffffffffffff021916908373ffffffffffffffffffffffffffffffffffffffff16021790555050620001d3565b600033905090565b6000815190506200014881620001b9565b92915050565b600060208284031215620001675762000166620001b4565b5b6000620001778482850162000137565b91505092915050565b60006200018d8262000194565b9050919050565b600073ffffffffffffffffffffffffffffffffffffffff82169050919050565b600080fd5b620001c48162000180565b8114620001d057600080fd5b50565b6112d880620001e36000396000f3fe608060405234801561001057600080fd5b50600436106100625760003560e01c8063715018a61461006757806389476069146100715780638da5cb5b146100a1578063bfe07da6146100bf578063f2fde38b146100db578063fc0c546a146100f7575b600080fd5b61006f610115565b005b61008b60048036038101906100869190610b1a565b61024f565b6040516100989190610f3d565b60405180910390f35b6100a9610420565b6040516100b69190610db5565b60405180910390f35b6100d960048036038101906100d49190610b47565b610449565b005b6100f560048036038101906100f09190610b1a565b610503565b005b6100ff6106ac565b60405161010c9190610e30565b60405180910390f35b61011d6106d2565b73ffffffffffffffffffffffffffffffffffffffff1661013b610420565b73ffffffffffffffffffffffffffffffffffffffff1614610191576040517f08c379a000000000000000000000000000000000000000000000000000000000815260040161018890610edd565b60405180910390fd5b600073ffffffffffffffffffffffffffffffffffffffff1660008054906101000a900473ffffffffffffffffffffffffffffffffffffffff1673ffffffffffffffffffffffffffffffffffffffff167f8be0079c531659141344cd1fd0a4f28419497f9722a3daafe3b4186f6b6457e060405160405180910390a360008060006101000a81548173ffffffffffffffffffffffffffffffffffffffff021916908373ffffffffffffffffffffffffffffffffffffffff160217905550565b60006102596106d2565b73ffffffffffffffffffffffffffffffffffffffff16610277610420565b73ffffffffffffffffffffffffffffffffffffffff16146102cd576040517f08c379a00000000000000000000000000000000000000000000000000000000081526004016102c490610edd565b60405180910390fd5b6000600160009054906101000a900473ffffffffffffffffffffffffffffffffffffffff1673ffffffffffffffffffffffffffffffffffffffff166370a08231306040518263ffffffff1660e01b815260040161032a9190610db5565b60206040518083038186803b15801561034257600080fd5b505afa158015610356573d6000803e3d6000fd5b505050506040513d601f19601f8201168201806040525081019061037a9190610be3565b90506103c98382600160009054906101000a900473ffffffffffffffffffffffffffffffffffffffff1673ffffffffffffffffffffffffffffffffffffffff166106da9092919063ffffffff16565b8273ffffffffffffffffffffffffffffffffffffffff167f7084f5476618d8e60b11ef0d7d3f06914655adb8793e28ff7f018d4c76d505d58260405161040f9190610f3d565b60405180910390a280915050919050565b60008060009054906101000a900473ffffffffffffffffffffffffffffffffffffffff16905090565b610498833084600160009054906101000a900473ffffffffffffffffffffffffffffffffffffffff1673ffffffffffffffffffffffffffffffffffffffff16610760909392919063ffffffff16565b806040516104a69190610d9e565b60405180910390208373ffffffffffffffffffffffffffffffffffffffff167f772fd01ba2daadfdda09db1c550283047f5efffe92a0dea54d4ba34950a3d8e383856040516104f6929190610e6d565b60405180910390a3505050565b61050b6106d2565b73ffffffffffffffffffffffffffffffffffffffff16610529610420565b73ffffffffffffffffffffffffffffffffffffffff161461057f576040517f08c379a000000000000000000000000000000000000000000000000000000000815260040161057690610edd565b60405180910390fd5b600073ffffffffffffffffffffffffffffffffffffffff168173ffffffffffffffffffffffffffffffffffffffff1614156105ef576040517f08c379a00000000000000000000000000000000000000000000000000000000081526004016105e690610e9d565b60405180910390fd5b8073ffffffffffffffffffffffffffffffffffffffff1660008054906101000a900473ffffffffffffffffffffffffffffffffffffffff1673ffffffffffffffffffffffffffffffffffffffff167f8be0079c531659141344cd1fd0a4f28419497f9722a3daafe3b4186f6b6457e060405160405180910390a3806000806101000a81548173ffffffffffffffffffffffffffffffffffffffff021916908373ffffffffffffffffffffffffffffffffffffffff16021790555050565b600160009054906101000a900473ffffffffffffffffffffffffffffffffffffffff1681565b600033905090565b61075b8363a9059cbb60e01b84846040516024016106f9929190610e07565b604051602081830303815290604052907bffffffffffffffffffffffffffffffffffffffffffffffffffffffff19166020820180517bffffffffffffffffffffffffffffffffffffffffffffffffffffffff83818316178352505050506107e9565b505050565b6107e3846323b872dd60e01b85858560405160240161078193929190610dd0565b604051602081830303815290604052907bffffffffffffffffffffffffffffffffffffffffffffffffffffffff19166020820180517bffffffffffffffffffffffffffffffffffffffffffffffffffffffff83818316178352505050506107e9565b50505050565b600061084b826040518060400160405280602081526020017f5361666545524332303a206c6f772d6c6576656c2063616c6c206661696c65648152508573ffffffffffffffffffffffffffffffffffffffff166108b09092919063ffffffff16565b90506000815111156108ab578080602001905181019061086b9190610bb6565b6108aa576040517f08c379a00000000000000000000000000000000000000000000000000000000081526004016108a190610f1d565b60405180910390fd5b5b505050565b60606108bf84846000856108c8565b90509392505050565b60608247101561090d576040517f08c379a000000000000000000000000000000000000000000000000000000000815260040161090490610ebd565b60405180910390fd5b610916856109dc565b610955576040517f08c379a000000000000000000000000000000000000000000000000000000000815260040161094c90610efd565b60405180910390fd5b6000808673ffffffffffffffffffffffffffffffffffffffff16858760405161097e9190610d87565b60006040518083038185875af1925050503d80600081146109bb576040519150601f19603f3d011682016040523d82523d6000602084013e6109c0565b606091505b50915091506109d08282866109ef565b92505050949350505050565b600080823b905060008111915050919050565b606083156109ff57829050610a4f565b600083511115610a125782518084602001fd5b816040517f08c379a0000000000000000000000000000000000000000000000000000000008152600401610a469190610e4b565b60405180910390fd5b9392505050565b6000610a69610a6484610f7d565b610f58565b905082815260208101848484011115610a8557610a846110fe565b5b610a90848285611057565b509392505050565b600081359050610aa78161125d565b92915050565b600081519050610abc81611274565b92915050565b600082601f830112610ad757610ad66110f9565b5b8135610ae7848260208601610a56565b91505092915050565b600081359050610aff8161128b565b92915050565b600081519050610b148161128b565b92915050565b600060208284031215610b3057610b2f611108565b5b6000610b3e84828501610a98565b91505092915050565b600080600060608486031215610b6057610b5f611108565b5b6000610b6e86828701610a98565b9350506020610b7f86828701610af0565b925050604084013567ffffffffffffffff811115610ba057610b9f611103565b5b610bac86828701610ac2565b9150509250925092565b600060208284031215610bcc57610bcb611108565b5b6000610bda84828501610aad565b91505092915050565b600060208284031215610bf957610bf8611108565b5b6000610c0784828501610b05565b91505092915050565b610c1981610feb565b82525050565b6000610c2a82610fae565b610c348185610fc4565b9350610c44818560208601611066565b80840191505092915050565b610c5981611033565b82525050565b6000610c6a82610fb9565b610c748185610fcf565b9350610c84818560208601611066565b610c8d8161110d565b840191505092915050565b6000610ca382610fb9565b610cad8185610fe0565b9350610cbd818560208601611066565b80840191505092915050565b6000610cd6602683610fcf565b9150610ce18261111e565b604082019050919050565b6000610cf9602683610fcf565b9150610d048261116d565b604082019050919050565b6000610d1c602083610fcf565b9150610d27826111bc565b602082019050919050565b6000610d3f601d83610fcf565b9150610d4a826111e5565b602082019050919050565b6000610d62602a83610fcf565b9150610d6d8261120e565b604082019050919050565b610d8181611029565b82525050565b6000610d938284610c1f565b915081905092915050565b6000610daa8284610c98565b915081905092915050565b6000602082019050610dca6000830184610c10565b92915050565b6000606082019050610de56000830186610c10565b610df26020830185610c10565b610dff6040830184610d78565b949350505050565b6000604082019050610e1c6000830185610c10565b610e296020830184610d78565b9392505050565b6000602082019050610e456000830184610c50565b92915050565b60006020820190508181036000830152610e658184610c5f565b905092915050565b60006040820190508181036000830152610e878185610c5f565b9050610e966020830184610d78565b9392505050565b60006020820190508181036000830152610eb681610cc9565b9050919050565b60006020820190508181036000830152610ed681610cec565b9050919050565b60006020820190508181036000830152610ef681610d0f565b9050919050565b60006020820190508181036000830152610f1681610d32565b9050919050565b60006020820190508181036000830152610f3681610d55565b9050919050565b6000602082019050610f526000830184610d78565b92915050565b6000610f62610f73565b9050610f6e8282611099565b919050565b6000604051905090565b600067ffffffffffffffff821115610f9857610f976110ca565b5b610fa18261110d565b9050602081019050919050565b600081519050919050565b600081519050919050565b600081905092915050565b600082825260208201905092915050565b600081905092915050565b6000610ff682611009565b9050919050565b60008115159050919050565b600073ffffffffffffffffffffffffffffffffffffffff82169050919050565b6000819050919050565b600061103e82611045565b9050919050565b600061105082611009565b9050919050565b82818337600083830152505050565b60005b83811015611084578082015181840152602081019050611069565b83811115611093576000848401525b50505050565b6110a28261110d565b810181811067ffffffffffffffff821117156110c1576110c06110ca565b5b80604052505050565b7f4e487b7100000000000000000000000000000000000000000000000000000000600052604160045260246000fd5b600080fd5b600080fd5b600080fd5b600080fd5b6000601f19601f8301169050919050565b7f4f776e61626c653a206e6577206f776e657220697320746865207a65726f206160008201527f6464726573730000000000000000000000000000000000000000000000000000602082015250565b7f416464726573733a20696e73756666696369656e742062616c616e636520666f60008201527f722063616c6c0000000000000000000000000000000000000000000000000000602082015250565b7f4f776e61626c653a2063616c6c6572206973206e6f7420746865206f776e6572600082015250565b7f416464726573733a2063616c6c20746f206e6f6e2d636f6e7472616374000000600082015250565b7f5361666545524332303a204552433230206f7065726174696f6e20646964206e60008201527f6f74207375636365656400000000000000000000000000000000000000000000602082015250565b61126681610feb565b811461127157600080fd5b50565b61127d81610ffd565b811461128857600080fd5b50565b61129481611029565b811461129f57600080fd5b5056fea2646970667358221220414ae5b1706666dbdd0155e458ba157aec00d3f485c673d3ea78462754ea1b5164736f6c63430008050033",
  "linkReferences": {},
  "deployedLinkReferences": {}
}