{
  "_format": "hh-sol-artifact-1",
  "contractName": "SmartAgreementAnchoring",
  "sourceName": "contracts/SmartAgreementAnchoring.sol",
  "abi": [
    {
      "inputs": [
        {
          "internalType": "address",
          "name": "tokenAddress",
          "type": "address"
        },
        {
          "internalType": "uint256",
          "name": "initialFee",
          "type": "uint256"
        }
      ],
      "stateMutability": "nonpayable",
      "type": "constructor"
    },
    {
      "anonymous": false,
      "inputs": [
        {
          "indexed": true,
          "internalType": "string",
          "name": "hashedDocumentId",
          "type": "string"
        },
        {
          "indexed": false,
          "internalType": "string",
          "name": "documentId",
          "type": "string"
        },
        {
          "indexed": true,
          "internalType": "address",
          "name": "counterparty",
          "type": "address"
        }
      ],
      "name": "AcceptedByCounterparty",
      "type": "event"
    },
    {
      "anonymous": false,
      "inputs": [
        {
          "indexed": true,
          "internalType": "string",
          "name": "hashedDocumentId",
          "type": "string"
        },
        {
          "indexed": false,
          "internalType": "string",
          "name": "documentId",
          "type": "string"
        }
      ],
      "name": "AgreementAccepted",
      "type": "event"
    },
    {
      "anonymous": false,
      "inputs": [
        {
          "indexed": true,
          "internalType": "string",
          "name": "hashedDocumentId",
          "type": "string"
        },
        {
          "indexed": false,
          "internalType": "string",
          "name": "documentId",
          "type": "string"
        }
      ],
      "name": "AgreementDeclined",
      "type": "event"
    },
    {
      "anonymous": false,
      "inputs": [
        {
          "indexed": true,
          "internalType": "string",
          "name": "hashedDocumentId",
          "type": "string"
        },
        {
          "indexed": false,
          "internalType": "string",
          "name": "documentId",
          "type": "string"
        },
        {
          "indexed": true,
          "internalType": "address",
          "name": "counterparty",
          "type": "address"
        }
      ],
      "name": "DeclinedByCounterparty",
      "type": "event"
    },
    {
      "anonymous": false,
      "inputs": [
        {
          "indexed": true,
          "internalType": "address",
          "name": "proposer",
          "type": "address"
        },
        {
          "indexed": true,
          "internalType": "string",
          "name": "proposerDID",
          "type": "string"
        },
        {
          "indexed": false,
          "internalType": "string",
          "name": "documentId",
          "type": "string"
        }
      ],
      "name": "DocumentAnchored",
      "type": "event"
    },
    {
      "anonymous": false,
      "inputs": [
        {
          "indexed": false,
          "internalType": "uint256",
          "name": "fee",
          "type": "uint256"
        }
      ],
      "name": "FeeChanged",
      "type": "event"
    },
    {
      "anonymous": false,
      "inputs": [
        {
          "indexed": true,
          "internalType": "address",
          "name": "previousOwner",
          "type": "address"
        },
        {
          "indexed": true,
          "internalType": "address",
          "name": "newOwner",
          "type": "address"
        }
      ],
      "name": "OwnershipTransferred",
      "type": "event"
    },
    {
      "anonymous": false,
      "inputs": [
        {
          "indexed": false,
          "internalType": "address",
          "name": "account",
          "type": "address"
        }
      ],
      "name": "Paused",
      "type": "event"
    },
    {
      "anonymous": false,
      "inputs": [
        {
          "indexed": true,
          "internalType": "address",
          "name": "proposer",
          "type": "address"
        },
        {
          "indexed": false,
          "internalType": "string",
          "name": "proposerDID",
          "type": "string"
        },
        {
          "indexed": true,
          "internalType": "address",
          "name": "recipient",
          "type": "address"
        },
        {
          "indexed": false,
          "internalType": "string",
          "name": "recipientDID",
          "type": "string"
        },
        {
          "indexed": false,
          "internalType": "string",
          "name": "documentId",
          "type": "string"
        }
      ],
      "name": "SignatureRequested",
      "type": "event"
    },
    {
      "anonymous": false,
      "inputs": [
        {
          "indexed": false,
          "internalType": "address",
          "name": "account",
          "type": "address"
        }
      ],
      "name": "Unpaused",
      "type": "event"
    },
    {
      "inputs": [
        {
          "internalType": "string",
          "name": "proposerDID",
          "type": "string"
        },
        {
          "internalType": "address[]",
          "name": "recipientAddresses",
          "type": "address[]"
        },
        {
          "internalType": "string[]",
          "name": "recipientDIDs",
          "type": "string[]"
        },
        {
          "internalType": "string",
          "name": "fileHash",
          "type": "string"
        },
        {
          "internalType": "uint256",
          "name": "requiredQuorum",
          "type": "uint256"
        },
        {
          "internalType": "uint256",
          "name": "templateId",
          "type": "uint256"
        },
        {
          "internalType": "bytes",
          "name": "metadata",
          "type": "bytes"
        },
        {
          "internalType": "uint256",
          "name": "validUntil",
          "type": "uint256"
        }
      ],
      "name": "addDocument",
      "outputs": [
        {
          "internalType": "string",
          "name": "documentId",
          "type": "string"
        }
      ],
      "stateMutability": "nonpayable",
      "type": "function"
    },
    {
      "inputs": [
        {
          "internalType": "string",
          "name": "",
          "type": "string"
        }
      ],
      "name": "anchors",
      "outputs": [
        {
          "internalType": "address",
          "name": "proposer",
          "type": "address"
        },
        {
          "internalType": "string",
          "name": "proposerDID",
          "type": "string"
        },
        {
          "internalType": "string",
          "name": "fileHash",
          "type": "string"
        },
        {
          "internalType": "uint256",
          "name": "requiredQuorum",
          "type": "uint256"
        },
        {
          "internalType": "uint256",
          "name": "templateId",
          "type": "uint256"
        },
        {
          "internalType": "bytes",
          "name": "metadata",
          "type": "bytes"
        },
        {
          "internalType": "uint256",
          "name": "validUntil",
          "type": "uint256"
        },
        {
          "internalType": "enum SmartAgreementAnchoring.SmartAgreementState",
          "name": "status",
          "type": "uint8"
        },
        {
          "components": [
            {
              "internalType": "uint256",
              "name": "_value",
              "type": "uint256"
            }
          ],
          "internalType": "struct Counters.Counter",
          "name": "acceptedCounterparties",
          "type": "tuple"
        },
        {
          "components": [
            {
              "internalType": "uint256",
              "name": "_value",
              "type": "uint256"
            }
          ],
          "internalType": "struct Counters.Counter",
          "name": "declinedCounterparties",
          "type": "tuple"
        }
      ],
      "stateMutability": "view",
      "type": "function"
    },
    {
      "inputs": [
        {
          "internalType": "string",
          "name": "",
          "type": "string"
        },
        {
          "internalType": "address",
          "name": "",
          "type": "address"
        }
      ],
      "name": "counterparties",
      "outputs": [
        {
          "internalType": "string",
          "name": "did",
          "type": "string"
        },
        {
          "internalType": "enum SmartAgreementAnchoring.AcceptanceState",
          "name": "acceptanceState",
          "type": "uint8"
        }
      ],
      "stateMutability": "view",
      "type": "function"
    },
    {
      "inputs": [],
      "name": "escrow",
      "outputs": [
        {
          "internalType": "contract TokenEscrow",
          "name": "",
          "type": "address"
        }
      ],
      "stateMutability": "view",
      "type": "function"
    },
    {
      "inputs": [],
      "name": "fee",
      "outputs": [
        {
          "internalType": "uint256",
          "name": "",
          "type": "uint256"
        }
      ],
      "stateMutability": "view",
      "type": "function"
    },
    {
      "inputs": [
        {
          "internalType": "string",
          "name": "documentId",
          "type": "string"
        }
      ],
      "name": "getCounterpartyAddresses",
      "outputs": [
        {
          "internalType": "address[]",
          "name": "addresses",
          "type": "address[]"
        }
      ],
      "stateMutability": "view",
      "type": "function"
    },
    {
      "inputs": [
        {
          "internalType": "string",
          "name": "documentId",
          "type": "string"
        }
      ],
      "name": "isAgreementExpired",
      "outputs": [
        {
          "internalType": "bool",
          "name": "isExpired",
          "type": "bool"
        }
      ],
      "stateMutability": "view",
      "type": "function"
    },
    {
      "inputs": [
        {
          "internalType": "string",
          "name": "documentId",
          "type": "string"
        },
        {
          "internalType": "address",
          "name": "counterparty",
          "type": "address"
        }
      ],
      "name": "isCounterparty",
      "outputs": [
        {
          "internalType": "bool",
          "name": "isAgreementCounterparty",
          "type": "bool"
        }
      ],
      "stateMutability": "view",
      "type": "function"
    },
    {
      "inputs": [],
      "name": "owner",
      "outputs": [
        {
          "internalType": "address",
          "name": "",
          "type": "address"
        }
      ],
      "stateMutability": "view",
      "type": "function"
    },
    {
      "inputs": [],
      "name": "pause",
      "outputs": [
        {
          "internalType": "bool",
          "name": "isPaused",
          "type": "bool"
        }
      ],
      "stateMutability": "nonpayable",
      "type": "function"
    },
    {
      "inputs": [],
      "name": "paused",
      "outputs": [
        {
          "internalType": "bool",
          "name": "",
          "type": "bool"
        }
      ],
      "stateMutability": "view",
      "type": "function"
    },
    {
      "inputs": [],
      "name": "renounceOwnership",
      "outputs": [],
      "stateMutability": "nonpayable",
      "type": "function"
    },
    {
      "inputs": [
        {
          "internalType": "uint256",
          "name": "_fee",
          "type": "uint256"
        }
      ],
      "name": "setFee",
      "outputs": [],
      "stateMutability": "nonpayable",
      "type": "function"
    },
    {
      "inputs": [
        {
          "internalType": "string",
          "name": "documentId",
          "type": "string"
        },
        {
          "internalType": "bool",
          "name": "accept",
          "type": "bool"
        }
      ],
      "name": "signAgreement",
      "outputs": [
        {
          "internalType": "uint256",
          "name": "acceptedCount",
          "type": "uint256"
        },
        {
          "internalType": "uint256",
          "name": "declinedCount",
          "type": "uint256"
        }
      ],
      "stateMutability": "nonpayable",
      "type": "function"
    },
    {
      "inputs": [
        {
          "internalType": "address",
          "name": "newOwner",
          "type": "address"
        }
      ],
      "name": "transferOwnership",
      "outputs": [],
      "stateMutability": "nonpayable",
      "type": "function"
    },
    {
      "inputs": [],
      "name": "unpause",
      "outputs": [
        {
          "internalType": "bool",
          "name": "isPaused",
          "type": "bool"
        }
      ],
      "stateMutability": "nonpayable",
      "type": "function"
    },
    {
      "inputs": [],
      "name": "withdrawFromEscrow",
      "outputs": [
        {
          "internalType": "uint256",
          "name": "amount",
          "type": "uint256"
        }
      ],
      "stateMutability": "nonpayable",
      "type": "function"
    }
  ],
  "bytecode": "0x60a06040523480156200001157600080fd5b5060405162005258380380620052588339818101604052810190620000379190620001c3565b6000620000496200017f60201b60201c565b9050806000806101000a81548173ffffffffffffffffffffffffffffffffffffffff021916908373ffffffffffffffffffffffffffffffffffffffff1602179055508073ffffffffffffffffffffffffffffffffffffffff16600073ffffffffffffffffffffffffffffffffffffffff167f8be0079c531659141344cd1fd0a4f28419497f9722a3daafe3b4186f6b6457e060405160405180910390a35060008060146101000a81548160ff02191690831515021790555081604051620001109062000187565b6200011c91906200021b565b604051809103906000f08015801562000139573d6000803e3d6000fd5b5073ffffffffffffffffffffffffffffffffffffffff1660808173ffffffffffffffffffffffffffffffffffffffff1660601b81525050806003819055505050620002af565b600033905090565b6114bb8062003d9d83390190565b600081519050620001a6816200027b565b92915050565b600081519050620001bd8162000295565b92915050565b60008060408385031215620001dd57620001dc62000276565b5b6000620001ed8582860162000195565b92505060206200020085828601620001ac565b9150509250929050565b620002158162000238565b82525050565b60006020820190506200023260008301846200020a565b92915050565b600062000245826200024c565b9050919050565b600073ffffffffffffffffffffffffffffffffffffffff82169050919050565b6000819050919050565b600080fd5b620002868162000238565b81146200029257600080fd5b50565b620002a0816200026c565b8114620002ac57600080fd5b50565b60805160601c613aba620002e360003960008181610eb60152818161174d01528181611c1a01526121860152613aba6000f3fe608060405234801561001057600080fd5b506004361061010b5760003560e01c80638da5cb5b116100a2578063c7236a9511610071578063c7236a95146102c6578063ddca3f43146102f6578063df20ab2914610314578063e2fdcc1714610345578063f2fde38b146103635761010b565b80638da5cb5b14610221578063b0fc84eb1461023f578063b725d6721461026f578063be8b68c41461028d5761010b565b8063715018a6116100de578063715018a614610198578063781e7a6f146101a25780637ab0a96e146101d25780638456cb59146102035761010b565b80633f4ba83a14610110578063563ad9f71461012e5780635c975abb1461015e57806369fe0e2d1461017c575b600080fd5b61011861037f565b60405161012591906130d9565b60405180910390f35b610148600480360381019061014391906129a8565b61040c565b60405161015591906130b7565b60405180910390f35b61016661056e565b60405161017391906130d9565b60405180910390f35b61019660048036038101906101919190612beb565b610584565b005b6101a0610643565b005b6101bc60048036038101906101b791906129f1565b61077d565b6040516101c991906130d9565b60405180910390f35b6101ec60048036038101906101e79190612b8f565b6108c2565b6040516101fa929190613348565b60405180910390f35b61020b6111fa565b60405161021891906130d9565b60405180910390f35b610229611287565b6040516102369190612fad565b60405180910390f35b610259600480360381019061025491906129a8565b6112b0565b60405161026691906130d9565b60405180910390f35b6102776116cd565b604051610284919061332d565b60405180910390f35b6102a760048036038101906102a291906129a8565b6117fb565b6040516102bd9a99989796959493929190612fc8565b60405180910390f35b6102e060048036038101906102db9190612a4d565b611a52565b6040516102ed919061310f565b60405180910390f35b6102fe6120a2565b60405161030b919061332d565b60405180910390f35b61032e600480360381019061032991906129f1565b6120a8565b60405161033c929190613131565b60405180910390f35b61034d612184565b60405161035a91906130f4565b60405180910390f35b61037d6004803603810190610378919061297b565b6121a8565b005b6000610389612351565b73ffffffffffffffffffffffffffffffffffffffff166103a7611287565b73ffffffffffffffffffffffffffffffffffffffff16146103fd576040517f08c379a00000000000000000000000000000000000000000000000000000000081526004016103f4906132cd565b60405180910390fd5b610405612359565b6000905090565b606081600073ffffffffffffffffffffffffffffffffffffffff166001826040516104379190612f96565b908152602001604051809103902060000160009054906101000a900473ffffffffffffffffffffffffffffffffffffffff1673ffffffffffffffffffffffffffffffffffffffff1614156104c0576040517f08c379a00000000000000000000000000000000000000000000000000000000081526004016104b7906132ad565b60405180910390fd5b6001836040516104d09190612f96565b908152602001604051809103902060080180548060200260200160405190810160405280929190818152602001828054801561056157602002820191906000526020600020905b8160009054906101000a900473ffffffffffffffffffffffffffffffffffffffff1673ffffffffffffffffffffffffffffffffffffffff1681526020019060010190808311610517575b5050505050915050919050565b60008060149054906101000a900460ff16905090565b61058c612351565b73ffffffffffffffffffffffffffffffffffffffff166105aa611287565b73ffffffffffffffffffffffffffffffffffffffff1614610600576040517f08c379a00000000000000000000000000000000000000000000000000000000081526004016105f7906132cd565b60405180910390fd5b806003819055507f6bbc57480a46553fa4d156ce702beef5f3ad66303b0ed1a5d4cb44966c6584c3600354604051610638919061332d565b60405180910390a150565b61064b612351565b73ffffffffffffffffffffffffffffffffffffffff16610669611287565b73ffffffffffffffffffffffffffffffffffffffff16146106bf576040517f08c379a00000000000000000000000000000000000000000000000000000000081526004016106b6906132cd565b60405180910390fd5b600073ffffffffffffffffffffffffffffffffffffffff1660008054906101000a900473ffffffffffffffffffffffffffffffffffffffff1673ffffffffffffffffffffffffffffffffffffffff167f8be0079c531659141344cd1fd0a4f28419497f9722a3daafe3b4186f6b6457e060405160405180910390a360008060006101000a81548173ffffffffffffffffffffffffffffffffffffffff021916908373ffffffffffffffffffffffffffffffffffffffff160217905550565b60006108ba6002846040516107929190612f96565b908152602001604051809103902060008473ffffffffffffffffffffffffffffffffffffffff1673ffffffffffffffffffffffffffffffffffffffff1681526020019081526020016000206040518060400160405290816000820180546107f8906135f8565b80601f0160208091040260200160405190810160405280929190818152602001828054610824906135f8565b80156108715780601f1061084657610100808354040283529160200191610871565b820191906000526020600020905b81548152906001019060200180831161085457829003601f168201915b505050505081526020016001820160009054906101000a900460ff16600381111561089f5761089e6136d3565b5b60038111156108b1576108b06136d3565b5b815250506123fa565b905092915050565b6000806108cd61056e565b1561090d576040517f08c379a00000000000000000000000000000000000000000000000000000000081526004016109049061326d565b60405180910390fd5b83600073ffffffffffffffffffffffffffffffffffffffff166001826040516109369190612f96565b908152602001604051809103902060000160009054906101000a900473ffffffffffffffffffffffffffffffffffffffff1673ffffffffffffffffffffffffffffffffffffffff1614156109bf576040517f08c379a00000000000000000000000000000000000000000000000000000000081526004016109b6906132ad565b60405180910390fd5b60006001866040516109d19190612f96565b9081526020016040518091039020905060006002876040516109f39190612f96565b908152602001604051809103902060003373ffffffffffffffffffffffffffffffffffffffff1673ffffffffffffffffffffffffffffffffffffffff168152602001908152602001600020905060006002811115610a5457610a536136d3565b5b8260070160009054906101000a900460ff166002811115610a7857610a776136d3565b5b14610ab8576040517f08c379a0000000000000000000000000000000000000000000000000000000008152600401610aaf9061328d565b60405180910390fd5b610dfc82604051806101600160405290816000820160009054906101000a900473ffffffffffffffffffffffffffffffffffffffff1673ffffffffffffffffffffffffffffffffffffffff1673ffffffffffffffffffffffffffffffffffffffff168152602001600182018054610b2e906135f8565b80601f0160208091040260200160405190810160405280929190818152602001828054610b5a906135f8565b8015610ba75780601f10610b7c57610100808354040283529160200191610ba7565b820191906000526020600020905b815481529060010190602001808311610b8a57829003601f168201915b50505050508152602001600282018054610bc0906135f8565b80601f0160208091040260200160405190810160405280929190818152602001828054610bec906135f8565b8015610c395780601f10610c0e57610100808354040283529160200191610c39565b820191906000526020600020905b815481529060010190602001808311610c1c57829003601f168201915b505050505081526020016003820154815260200160048201548152602001600582018054610c66906135f8565b80601f0160208091040260200160405190810160405280929190818152602001828054610c92906135f8565b8015610cdf5780601f10610cb457610100808354040283529160200191610cdf565b820191906000526020600020905b815481529060010190602001808311610cc257829003601f168201915b50505050508152602001600682015481526020016007820160009054906101000a900460ff166002811115610d1757610d166136d3565b5b6002811115610d2957610d286136d3565b5b815260200160088201805480602002602001604051908101604052809291908181526020018280548015610db257602002820191906000526020600020905b8160009054906101000a900473ffffffffffffffffffffffffffffffffffffffff1673ffffffffffffffffffffffffffffffffffffffff1681526020019060010190808311610d68575b50505050508152602001600982016040518060200160405290816000820154815250508152602001600a82016040518060200160405290816000820154815250508152505061242f565b15610e3c576040517f08c379a0000000000000000000000000000000000000000000000000000000008152600401610e33906132ed565b60405180910390fd5b60016003811115610e5057610e4f6136d3565b5b8160010160009054906101000a900460ff166003811115610e7457610e736136d3565b5b14610eb4576040517f08c379a0000000000000000000000000000000000000000000000000000000008152600401610eab906131ed565b60405180910390fd5b7f000000000000000000000000000000000000000000000000000000000000000073ffffffffffffffffffffffffffffffffffffffff1663bfe07da6336003548a6040518463ffffffff1660e01b8152600401610f1393929190613079565b600060405180830381600087803b158015610f2d57600080fd5b505af1158015610f41573d6000803e3d6000fd5b5050505085156110975760028160010160006101000a81548160ff02191690836003811115610f7357610f726136d3565b5b0217905550610f8482600901612473565b3373ffffffffffffffffffffffffffffffffffffffff1687604051610fa99190612f96565b60405180910390207f32f22defe58ca91bec6f3d060e385799e69877bd80d3f8cd95a9018b58fc71cb89604051610fe0919061310f565b60405180910390a36000610ff683600901612489565b90508260030154811061107e5760018360070160006101000a81548160ff0219169083600281111561102b5761102a6136d3565b5b02179055508760405161103e9190612f96565b60405180910390207f83866350ec6086627ed8b01b01a18b5626360c3a14f8d7ba0c34d6fdd57cf38789604051611075919061310f565b60405180910390a25b8061108b84600a01612489565b955095505050506111f2565b60038160010160006101000a81548160ff021916908360038111156110bf576110be6136d3565b5b02179055506110d082600a01612473565b3373ffffffffffffffffffffffffffffffffffffffff16876040516110f59190612f96565b60405180910390207ff79b52f5be37fd584ae1e5c43c6e78f6182f357b3a4b9a37d9fc5a551265a40e8960405161112c919061310f565b60405180910390a3600061114283600a01612489565b90508260030154836008018054905061115b91906134cc565b8111156111dd5760028360070160006101000a81548160ff0219169083600281111561118a576111896136d3565b5b02179055508760405161119d9190612f96565b60405180910390207ff56cf33cb3031ca5206286df2959ac83827c3895f987235f476aa7fe2b57b742896040516111d4919061310f565b60405180910390a25b6111e983600901612489565b81955095505050505b509250929050565b6000611204612351565b73ffffffffffffffffffffffffffffffffffffffff16611222611287565b73ffffffffffffffffffffffffffffffffffffffff1614611278576040517f08c379a000000000000000000000000000000000000000000000000000000000815260040161126f906132cd565b60405180910390fd5b611280612497565b6001905090565b60008060009054906101000a900473ffffffffffffffffffffffffffffffffffffffff16905090565b600081600073ffffffffffffffffffffffffffffffffffffffff166001826040516112db9190612f96565b908152602001604051809103902060000160009054906101000a900473ffffffffffffffffffffffffffffffffffffffff1673ffffffffffffffffffffffffffffffffffffffff161415611364576040517f08c379a000000000000000000000000000000000000000000000000000000000815260040161135b906132ad565b60405180910390fd5b6116c56001846040516113779190612f96565b9081526020016040518091039020604051806101600160405290816000820160009054906101000a900473ffffffffffffffffffffffffffffffffffffffff1673ffffffffffffffffffffffffffffffffffffffff1673ffffffffffffffffffffffffffffffffffffffff1681526020016001820180546113f7906135f8565b80601f0160208091040260200160405190810160405280929190818152602001828054611423906135f8565b80156114705780601f1061144557610100808354040283529160200191611470565b820191906000526020600020905b81548152906001019060200180831161145357829003601f168201915b50505050508152602001600282018054611489906135f8565b80601f01602080910402602001604051908101604052809291908181526020018280546114b5906135f8565b80156115025780601f106114d757610100808354040283529160200191611502565b820191906000526020600020905b8154815290600101906020018083116114e557829003601f168201915b50505050508152602001600382015481526020016004820154815260200160058201805461152f906135f8565b80601f016020809104026020016040519081016040528092919081815260200182805461155b906135f8565b80156115a85780601f1061157d576101008083540402835291602001916115a8565b820191906000526020600020905b81548152906001019060200180831161158b57829003601f168201915b50505050508152602001600682015481526020016007820160009054906101000a900460ff1660028111156115e0576115df6136d3565b5b60028111156115f2576115f16136d3565b5b81526020016008820180548060200260200160405190810160405280929190818152602001828054801561167b57602002820191906000526020600020905b8160009054906101000a900473ffffffffffffffffffffffffffffffffffffffff1673ffffffffffffffffffffffffffffffffffffffff1681526020019060010190808311611631575b50505050508152602001600982016040518060200160405290816000820154815250508152602001600a82016040518060200160405290816000820154815250508152505061242f565b915050919050565b60006116d7612351565b73ffffffffffffffffffffffffffffffffffffffff166116f5611287565b73ffffffffffffffffffffffffffffffffffffffff161461174b576040517f08c379a0000000000000000000000000000000000000000000000000000000008152600401611742906132cd565b60405180910390fd5b7f000000000000000000000000000000000000000000000000000000000000000073ffffffffffffffffffffffffffffffffffffffff166389476069336040518263ffffffff1660e01b81526004016117a49190612fad565b602060405180830381600087803b1580156117be57600080fd5b505af11580156117d2573d6000803e3d6000fd5b505050506040513d601f19601f820116820180604052508101906117f69190612c18565b905090565b6001818051602081018201805184825260208301602085012081835280955050505050506000915090508060000160009054906101000a900473ffffffffffffffffffffffffffffffffffffffff169080600101805461185a906135f8565b80601f0160208091040260200160405190810160405280929190818152602001828054611886906135f8565b80156118d35780601f106118a8576101008083540402835291602001916118d3565b820191906000526020600020905b8154815290600101906020018083116118b657829003601f168201915b5050505050908060020180546118e8906135f8565b80601f0160208091040260200160405190810160405280929190818152602001828054611914906135f8565b80156119615780601f1061193657610100808354040283529160200191611961565b820191906000526020600020905b81548152906001019060200180831161194457829003601f168201915b505050505090806003015490806004015490806005018054611982906135f8565b80601f01602080910402602001604051908101604052809291908181526020018280546119ae906135f8565b80156119fb5780601f106119d0576101008083540402835291602001916119fb565b820191906000526020600020905b8154815290600101906020018083116119de57829003601f168201915b5050505050908060060154908060070160009054906101000a900460ff1690806009016040518060200160405290816000820154815250509080600a0160405180602001604052908160008201548152505090508a565b6060611a5c61056e565b15611a9c576040517f08c379a0000000000000000000000000000000000000000000000000000000008152600401611a939061326d565b60405180910390fd5b6000875111611ae0576040517f08c379a0000000000000000000000000000000000000000000000000000000008152600401611ad79061320d565b60405180910390fd5b8751875114611b24576040517f08c379a0000000000000000000000000000000000000000000000000000000008152600401611b1b9061324d565b60405180910390fd5b8487511015611b68576040517f08c379a0000000000000000000000000000000000000000000000000000000008152600401611b5f906131ad565b60405180910390fd5b600073ffffffffffffffffffffffffffffffffffffffff16600187604051611b909190612f96565b908152602001604051809103902060000160009054906101000a900473ffffffffffffffffffffffffffffffffffffffff1673ffffffffffffffffffffffffffffffffffffffff1614611c18576040517f08c379a0000000000000000000000000000000000000000000000000000000008152600401611c0f9061330d565b60405180910390fd5b7f000000000000000000000000000000000000000000000000000000000000000073ffffffffffffffffffffffffffffffffffffffff1663bfe07da633600354896040518463ffffffff1660e01b8152600401611c7793929190613079565b600060405180830381600087803b158015611c9157600080fd5b505af1158015611ca5573d6000803e3d6000fd5b5050505060005b8851811015611e44576000888281518110611cca57611cc9613731565b5b6020026020010151905060008a8381518110611ce957611ce8613731565b5b60200260200101519050604051806040016040528083815260200160016003811115611d1857611d176136d3565b5b81525060028a604051611d2b9190612f96565b908152602001604051809103902060008373ffffffffffffffffffffffffffffffffffffffff1673ffffffffffffffffffffffffffffffffffffffff1681526020019081526020016000206000820151816000019080519060200190611d9292919061253a565b5060208201518160010160006101000a81548160ff02191690836003811115611dbe57611dbd6136d3565b5b02179055509050508073ffffffffffffffffffffffffffffffffffffffff163373ffffffffffffffffffffffffffffffffffffffff167fb530d662b6e8e270478d95069e341f70deb680d2f36dfc45288cff148e6a56308e858d604051611e2793929190613161565b60405180910390a350508080611e3c9061365b565b915050611cac565b506040518061016001604052803373ffffffffffffffffffffffffffffffffffffffff1681526020018a815260200187815260200186815260200185815260200184815260200183815260200160006002811115611ea557611ea46136d3565b5b815260200189815260200160405180602001604052806000815250815260200160405180602001604052806000815250815250600187604051611ee89190612f96565b908152602001604051809103902060008201518160000160006101000a81548173ffffffffffffffffffffffffffffffffffffffff021916908373ffffffffffffffffffffffffffffffffffffffff1602179055506020820151816001019080519060200190611f5992919061253a565b506040820151816002019080519060200190611f7692919061253a565b50606082015181600301556080820151816004015560a0820151816005019080519060200190611fa79291906125c0565b5060c0820151816006015560e08201518160070160006101000a81548160ff02191690836002811115611fdd57611fdc6136d3565b5b0217905550610100820151816008019080519060200190611fff929190612646565b506101208201518160090160008201518160000155505061014082015181600a016000820151816000015550509050508860405161203d9190612f96565b60405180910390203373ffffffffffffffffffffffffffffffffffffffff167f31d0ccabff610365ff3d62eb69f00e11ef6d5814df35e7a75a27ee1950c1a3668860405161208b919061310f565b60405180910390a385905098975050505050505050565b60035481565b600282805160208101820180518482526020830160208501208183528095505050505050602052806000526040600020600091509150508060000180546120ee906135f8565b80601f016020809104026020016040519081016040528092919081815260200182805461211a906135f8565b80156121675780601f1061213c57610100808354040283529160200191612167565b820191906000526020600020905b81548152906001019060200180831161214a57829003601f168201915b5050505050908060010160009054906101000a900460ff16905082565b7f000000000000000000000000000000000000000000000000000000000000000081565b6121b0612351565b73ffffffffffffffffffffffffffffffffffffffff166121ce611287565b73ffffffffffffffffffffffffffffffffffffffff1614612224576040517f08c379a000000000000000000000000000000000000000000000000000000000815260040161221b906132cd565b60405180910390fd5b600073ffffffffffffffffffffffffffffffffffffffff168173ffffffffffffffffffffffffffffffffffffffff161415612294576040517f08c379a000000000000000000000000000000000000000000000000000000000815260040161228b9061322d565b60405180910390fd5b8073ffffffffffffffffffffffffffffffffffffffff1660008054906101000a900473ffffffffffffffffffffffffffffffffffffffff1673ffffffffffffffffffffffffffffffffffffffff167f8be0079c531659141344cd1fd0a4f28419497f9722a3daafe3b4186f6b6457e060405160405180910390a3806000806101000a81548173ffffffffffffffffffffffffffffffffffffffff021916908373ffffffffffffffffffffffffffffffffffffffff16021790555050565b600033905090565b61236161056e565b6123a0576040517f08c379a0000000000000000000000000000000000000000000000000000000008152600401612397906131cd565b60405180910390fd5b60008060146101000a81548160ff0219169083151502179055507f5db9ee0a495bf2e6ff9c91a7834c1ba4fdd244a5e8aa4e537bd38aeae4b073aa6123e3612351565b6040516123f09190612fad565b60405180910390a1565b600080600381111561240f5761240e6136d3565b5b82602001516003811115612426576124256136d3565b5b14159050919050565b6000428260c0015110801561246c575060006002811115612453576124526136d3565b5b8260e00151600281111561246a576124696136d3565b5b145b9050919050565b6001816000016000828254019250508190555050565b600081600001549050919050565b61249f61056e565b156124df576040517f08c379a00000000000000000000000000000000000000000000000000000000081526004016124d69061326d565b60405180910390fd5b6001600060146101000a81548160ff0219169083151502179055507f62e78cea01bee320cd4e420270b5ea74000d11b0c9f74754ebdbfc544b05a258612523612351565b6040516125309190612fad565b60405180910390a1565b828054612546906135f8565b90600052602060002090601f01602090048101928261256857600085556125af565b82601f1061258157805160ff19168380011785556125af565b828001600101855582156125af579182015b828111156125ae578251825591602001919060010190612593565b5b5090506125bc91906126d0565b5090565b8280546125cc906135f8565b90600052602060002090601f0160209004810192826125ee5760008555612635565b82601f1061260757805160ff1916838001178555612635565b82800160010185558215612635579182015b82811115612634578251825591602001919060010190612619565b5b50905061264291906126d0565b5090565b8280548282559060005260206000209081019282156126bf579160200282015b828111156126be5782518260006101000a81548173ffffffffffffffffffffffffffffffffffffffff021916908373ffffffffffffffffffffffffffffffffffffffff16021790555091602001919060010190612666565b5b5090506126cc91906126d0565b5090565b5b808211156126e95760008160009055506001016126d1565b5090565b60006127006126fb84613396565b613371565b9050808382526020820190508285602086028201111561272357612722613794565b5b60005b858110156127535781612739888261286f565b845260208401935060208301925050600181019050612726565b5050509392505050565b600061277061276b846133c2565b613371565b9050808382526020820190508285602086028201111561279357612792613794565b5b60005b858110156127e157813567ffffffffffffffff8111156127b9576127b861378f565b5b8086016127c68982612923565b85526020850194506020840193505050600181019050612796565b5050509392505050565b60006127fe6127f9846133ee565b613371565b90508281526020810184848401111561281a57612819613799565b5b6128258482856135b6565b509392505050565b600061284061283b8461341f565b613371565b90508281526020810184848401111561285c5761285b613799565b5b6128678482856135b6565b509392505050565b60008135905061287e81613a3f565b92915050565b600082601f8301126128995761289861378f565b5b81356128a98482602086016126ed565b91505092915050565b600082601f8301126128c7576128c661378f565b5b81356128d784826020860161275d565b91505092915050565b6000813590506128ef81613a56565b92915050565b600082601f83011261290a5761290961378f565b5b813561291a8482602086016127eb565b91505092915050565b600082601f8301126129385761293761378f565b5b813561294884826020860161282d565b91505092915050565b60008135905061296081613a6d565b92915050565b60008151905061297581613a6d565b92915050565b600060208284031215612991576129906137a3565b5b600061299f8482850161286f565b91505092915050565b6000602082840312156129be576129bd6137a3565b5b600082013567ffffffffffffffff8111156129dc576129db61379e565b5b6129e884828501612923565b91505092915050565b60008060408385031215612a0857612a076137a3565b5b600083013567ffffffffffffffff811115612a2657612a2561379e565b5b612a3285828601612923565b9250506020612a438582860161286f565b9150509250929050565b600080600080600080600080610100898b031215612a6e57612a6d6137a3565b5b600089013567ffffffffffffffff811115612a8c57612a8b61379e565b5b612a988b828c01612923565b985050602089013567ffffffffffffffff811115612ab957612ab861379e565b5b612ac58b828c01612884565b975050604089013567ffffffffffffffff811115612ae657612ae561379e565b5b612af28b828c016128b2565b965050606089013567ffffffffffffffff811115612b1357612b1261379e565b5b612b1f8b828c01612923565b9550506080612b308b828c01612951565b94505060a0612b418b828c01612951565b93505060c089013567ffffffffffffffff811115612b6257612b6161379e565b5b612b6e8b828c016128f5565b92505060e0612b7f8b828c01612951565b9150509295985092959890939650565b60008060408385031215612ba657612ba56137a3565b5b600083013567ffffffffffffffff811115612bc457612bc361379e565b5b612bd085828601612923565b9250506020612be1858286016128e0565b9150509250929050565b600060208284031215612c0157612c006137a3565b5b6000612c0f84828501612951565b91505092915050565b600060208284031215612c2e57612c2d6137a3565b5b6000612c3c84828501612966565b91505092915050565b6000612c518383612c5d565b60208301905092915050565b612c6681613500565b82525050565b612c7581613500565b82525050565b6000612c8682613460565b612c90818561348e565b9350612c9b83613450565b8060005b83811015612ccc578151612cb38882612c45565b9750612cbe83613481565b925050600181019050612c9f565b5085935050505092915050565b612ce281613512565b82525050565b6000612cf38261346b565b612cfd818561349f565b9350612d0d8185602086016135c5565b612d16816137a8565b840191505092915050565b612d2a8161356e565b82525050565b612d3981613592565b82525050565b612d48816135a4565b82525050565b6000612d5982613476565b612d6381856134b0565b9350612d738185602086016135c5565b612d7c816137a8565b840191505092915050565b6000612d9282613476565b612d9c81856134c1565b9350612dac8185602086016135c5565b80840191505092915050565b6000612dc56017836134b0565b9150612dd0826137b9565b602082019050919050565b6000612de86014836134b0565b9150612df3826137e2565b602082019050919050565b6000612e0b601c836134b0565b9150612e168261380b565b602082019050919050565b6000612e2e6025836134b0565b9150612e3982613834565b604082019050919050565b6000612e516026836134b0565b9150612e5c82613883565b604082019050919050565b6000612e746018836134b0565b9150612e7f826138d2565b602082019050919050565b6000612e976010836134b0565b9150612ea2826138fb565b602082019050919050565b6000612eba6016836134b0565b9150612ec582613924565b602082019050919050565b6000612edd6021836134b0565b9150612ee88261394d565b604082019050919050565b6000612f006020836134b0565b9150612f0b8261399c565b602082019050919050565b6000612f23601b836134b0565b9150612f2e826139c5565b602082019050919050565b6000612f46601f836134b0565b9150612f51826139ee565b602082019050919050565b602082016000820151612f726000850182612f78565b50505050565b612f8181613564565b82525050565b612f9081613564565b82525050565b6000612fa28284612d87565b915081905092915050565b6000602082019050612fc26000830184612c6c565b92915050565b600061014082019050612fde600083018d612c6c565b8181036020830152612ff0818c612d4e565b90508181036040830152613004818b612d4e565b9050613013606083018a612f87565b6130206080830189612f87565b81810360a08301526130328188612ce8565b905061304160c0830187612f87565b61304e60e0830186612d3f565b61305c610100830185612f5c565b61306a610120830184612f5c565b9b9a5050505050505050505050565b600060608201905061308e6000830186612c6c565b61309b6020830185612f87565b81810360408301526130ad8184612d4e565b9050949350505050565b600060208201905081810360008301526130d18184612c7b565b905092915050565b60006020820190506130ee6000830184612cd9565b92915050565b60006020820190506131096000830184612d21565b92915050565b600060208201905081810360008301526131298184612d4e565b905092915050565b6000604082019050818103600083015261314b8185612d4e565b905061315a6020830184612d30565b9392505050565b6000606082019050818103600083015261317b8186612d4e565b9050818103602083015261318f8185612d4e565b905081810360408301526131a38184612d4e565b9050949350505050565b600060208201905081810360008301526131c681612db8565b9050919050565b600060208201905081810360008301526131e681612ddb565b9050919050565b6000602082019050818103600083015261320681612dfe565b9050919050565b6000602082019050818103600083015261322681612e21565b9050919050565b6000602082019050818103600083015261324681612e44565b9050919050565b6000602082019050818103600083015261326681612e67565b9050919050565b6000602082019050818103600083015261328681612e8a565b9050919050565b600060208201905081810360008301526132a681612ead565b9050919050565b600060208201905081810360008301526132c681612ed0565b9050919050565b600060208201905081810360008301526132e681612ef3565b9050919050565b6000602082019050818103600083015261330681612f16565b9050919050565b6000602082019050818103600083015261332681612f39565b9050919050565b60006020820190506133426000830184612f87565b92915050565b600060408201905061335d6000830185612f87565b61336a6020830184612f87565b9392505050565b600061337b61338c565b9050613387828261362a565b919050565b6000604051905090565b600067ffffffffffffffff8211156133b1576133b0613760565b5b602082029050602081019050919050565b600067ffffffffffffffff8211156133dd576133dc613760565b5b602082029050602081019050919050565b600067ffffffffffffffff82111561340957613408613760565b5b613412826137a8565b9050602081019050919050565b600067ffffffffffffffff82111561343a57613439613760565b5b613443826137a8565b9050602081019050919050565b6000819050602082019050919050565b600081519050919050565b600081519050919050565b600081519050919050565b6000602082019050919050565b600082825260208201905092915050565b600082825260208201905092915050565b600082825260208201905092915050565b600081905092915050565b60006134d782613564565b91506134e283613564565b9250828210156134f5576134f46136a4565b5b828203905092915050565b600061350b82613544565b9050919050565b60008115159050919050565b600081905061352c82613a17565b919050565b600081905061353f82613a2b565b919050565b600073ffffffffffffffffffffffffffffffffffffffff82169050919050565b6000819050919050565b600061357982613580565b9050919050565b600061358b82613544565b9050919050565b600061359d8261351e565b9050919050565b60006135af82613531565b9050919050565b82818337600083830152505050565b60005b838110156135e35780820151818401526020810190506135c8565b838111156135f2576000848401525b50505050565b6000600282049050600182168061361057607f821691505b6020821081141561362457613623613702565b5b50919050565b613633826137a8565b810181811067ffffffffffffffff8211171561365257613651613760565b5b80604052505050565b600061366682613564565b91507fffffffffffffffffffffffffffffffffffffffffffffffffffffffffffffffff821415613699576136986136a4565b5b600182019050919050565b7f4e487b7100000000000000000000000000000000000000000000000000000000600052601160045260246000fd5b7f4e487b7100000000000000000000000000000000000000000000000000000000600052602160045260246000fd5b7f4e487b7100000000000000000000000000000000000000000000000000000000600052602260045260246000fd5b7f4e487b7100000000000000000000000000000000000000000000000000000000600052603260045260246000fd5b7f4e487b7100000000000000000000000000000000000000000000000000000000600052604160045260246000fd5b600080fd5b600080fd5b600080fd5b600080fd5b600080fd5b6000601f19601f8301169050919050565b7f416e63686f723a2051756f72756d20746f6f2068696768000000000000000000600082015250565b7f5061757361626c653a206e6f7420706175736564000000000000000000000000600082015250565b7f416e63686f723a20696e76616c696420636f756e746572706172747900000000600082015250565b7f416e63686f723a204e65656473206174206c65617374206120636f756e74657260008201527f7061727479000000000000000000000000000000000000000000000000000000602082015250565b7f4f776e61626c653a206e6577206f776e657220697320746865207a65726f206160008201527f6464726573730000000000000000000000000000000000000000000000000000602082015250565b7f416e63686f723a20496e636f7272656374206c656e6774680000000000000000600082015250565b7f5061757361626c653a2070617573656400000000000000000000000000000000600082015250565b7f416e63686f72696e673a2077726f6e6720737461746500000000000000000000600082015250565b7f416e63686f72696e673a20446f63756d656e7420646f65736e2774206578697360008201527f7400000000000000000000000000000000000000000000000000000000000000602082015250565b7f4f776e61626c653a2063616c6c6572206973206e6f7420746865206f776e6572600082015250565b7f416e63686f72696e673a20436f6e747261637420657870697265640000000000600082015250565b7f416e63686f723a20446f63756d656e7420616c72656164792065786973747300600082015250565b60048110613a2857613a276136d3565b5b50565b60038110613a3c57613a3b6136d3565b5b50565b613a4881613500565b8114613a5357600080fd5b50565b613a5f81613512565b8114613a6a57600080fd5b50565b613a7681613564565b8114613a8157600080fd5b5056fea26469706673582212209086b136d26c4d8e4c6249de412866795dacb3372787924e09c74932151b909264736f6c6343000805003360806040523480156200001157600080fd5b50604051620014bb380380620014bb83398181016040528101906200003791906200014e565b6000620000496200012f60201b60201c565b9050806000806101000a81548173ffffffffffffffffffffffffffffffffffffffff021916908373ffffffffffffffffffffffffffffffffffffffff1602179055508073ffffffffffffffffffffffffffffffffffffffff16600073ffffffffffffffffffffffffffffffffffffffff167f8be0079c531659141344cd1fd0a4f28419497f9722a3daafe3b4186f6b6457e060405160405180910390a35080600160006101000a81548173ffffffffffffffffffffffffffffffffffffffff021916908373ffffffffffffffffffffffffffffffffffffffff16021790555050620001d3565b600033905090565b6000815190506200014881620001b9565b92915050565b600060208284031215620001675762000166620001b4565b5b6000620001778482850162000137565b91505092915050565b60006200018d8262000194565b9050919050565b600073ffffffffffffffffffffffffffffffffffffffff82169050919050565b600080fd5b620001c48162000180565b8114620001d057600080fd5b50565b6112d880620001e36000396000f3fe608060405234801561001057600080fd5b50600436106100625760003560e01c8063715018a61461006757806389476069146100715780638da5cb5b146100a1578063bfe07da6146100bf578063f2fde38b146100db578063fc0c546a146100f7575b600080fd5b61006f610115565b005b61008b60048036038101906100869190610b1a565b61024f565b6040516100989190610f3d565b60405180910390f35b6100a9610420565b6040516100b69190610db5565b60405180910390f35b6100d960048036038101906100d49190610b47565b610449565b005b6100f560048036038101906100f09190610b1a565b610503565b005b6100ff6106ac565b60405161010c9190610e30565b60405180910390f35b61011d6106d2565b73ffffffffffffffffffffffffffffffffffffffff1661013b610420565b73ffffffffffffffffffffffffffffffffffffffff1614610191576040517f08c379a000000000000000000000000000000000000000000000000000000000815260040161018890610edd565b60405180910390fd5b600073ffffffffffffffffffffffffffffffffffffffff1660008054906101000a900473ffffffffffffffffffffffffffffffffffffffff1673ffffffffffffffffffffffffffffffffffffffff167f8be0079c531659141344cd1fd0a4f28419497f9722a3daafe3b4186f6b6457e060405160405180910390a360008060006101000a81548173ffffffffffffffffffffffffffffffffffffffff021916908373ffffffffffffffffffffffffffffffffffffffff160217905550565b60006102596106d2565b73ffffffffffffffffffffffffffffffffffffffff16610277610420565b73ffffffffffffffffffffffffffffffffffffffff16146102cd576040517f08c379a00000000000000000000000000000000000000000000000000000000081526004016102c490610edd565b60405180910390fd5b6000600160009054906101000a900473ffffffffffffffffffffffffffffffffffffffff1673ffffffffffffffffffffffffffffffffffffffff166370a08231306040518263ffffffff1660e01b815260040161032a9190610db5565b60206040518083038186803b15801561034257600080fd5b505afa158015610356573d6000803e3d6000fd5b505050506040513d601f19601f8201168201806040525081019061037a9190610be3565b90506103c98382600160009054906101000a900473ffffffffffffffffffffffffffffffffffffffff1673ffffffffffffffffffffffffffffffffffffffff166106da9092919063ffffffff16565b8273ffffffffffffffffffffffffffffffffffffffff167f7084f5476618d8e60b11ef0d7d3f06914655adb8793e28ff7f018d4c76d505d58260405161040f9190610f3d565b60405180910390a280915050919050565b60008060009054906101000a900473ffffffffffffffffffffffffffffffffffffffff16905090565b610498833084600160009054906101000a900473ffffffffffffffffffffffffffffffffffffffff1673ffffffffffffffffffffffffffffffffffffffff16610760909392919063ffffffff16565b806040516104a69190610d9e565b60405180910390208373ffffffffffffffffffffffffffffffffffffffff167f772fd01ba2daadfdda09db1c550283047f5efffe92a0dea54d4ba34950a3d8e383856040516104f6929190610e6d565b60405180910390a3505050565b61050b6106d2565b73ffffffffffffffffffffffffffffffffffffffff16610529610420565b73ffffffffffffffffffffffffffffffffffffffff161461057f576040517f08c379a000000000000000000000000000000000000000000000000000000000815260040161057690610edd565b60405180910390fd5b600073ffffffffffffffffffffffffffffffffffffffff168173ffffffffffffffffffffffffffffffffffffffff1614156105ef576040517f08c379a00000000000000000000000000000000000000000000000000000000081526004016105e690610e9d565b60405180910390fd5b8073ffffffffffffffffffffffffffffffffffffffff1660008054906101000a900473ffffffffffffffffffffffffffffffffffffffff1673ffffffffffffffffffffffffffffffffffffffff167f8be0079c531659141344cd1fd0a4f28419497f9722a3daafe3b4186f6b6457e060405160405180910390a3806000806101000a81548173ffffffffffffffffffffffffffffffffffffffff021916908373ffffffffffffffffffffffffffffffffffffffff16021790555050565b600160009054906101000a900473ffffffffffffffffffffffffffffffffffffffff1681565b600033905090565b61075b8363a9059cbb60e01b84846040516024016106f9929190610e07565b604051602081830303815290604052907bffffffffffffffffffffffffffffffffffffffffffffffffffffffff19166020820180517bffffffffffffffffffffffffffffffffffffffffffffffffffffffff83818316178352505050506107e9565b505050565b6107e3846323b872dd60e01b85858560405160240161078193929190610dd0565b604051602081830303815290604052907bffffffffffffffffffffffffffffffffffffffffffffffffffffffff19166020820180517bffffffffffffffffffffffffffffffffffffffffffffffffffffffff83818316178352505050506107e9565b50505050565b600061084b826040518060400160405280602081526020017f5361666545524332303a206c6f772d6c6576656c2063616c6c206661696c65648152508573ffffffffffffffffffffffffffffffffffffffff166108b09092919063ffffffff16565b90506000815111156108ab578080602001905181019061086b9190610bb6565b6108aa576040517f08c379a00000000000000000000000000000000000000000000000000000000081526004016108a190610f1d565b60405180910390fd5b5b505050565b60606108bf84846000856108c8565b90509392505050565b60608247101561090d576040517f08c379a000000000000000000000000000000000000000000000000000000000815260040161090490610ebd565b60405180910390fd5b610916856109dc565b610955576040517f08c379a000000000000000000000000000000000000000000000000000000000815260040161094c90610efd565b60405180910390fd5b6000808673ffffffffffffffffffffffffffffffffffffffff16858760405161097e9190610d87565b60006040518083038185875af1925050503d80600081146109bb576040519150601f19603f3d011682016040523d82523d6000602084013e6109c0565b606091505b50915091506109d08282866109ef565b92505050949350505050565b600080823b905060008111915050919050565b606083156109ff57829050610a4f565b600083511115610a125782518084602001fd5b816040517f08c379a0000000000000000000000000000000000000000000000000000000008152600401610a469190610e4b565b60405180910390fd5b9392505050565b6000610a69610a6484610f7d565b610f58565b905082815260208101848484011115610a8557610a846110fe565b5b610a90848285611057565b509392505050565b600081359050610aa78161125d565b92915050565b600081519050610abc81611274565b92915050565b600082601f830112610ad757610ad66110f9565b5b8135610ae7848260208601610a56565b91505092915050565b600081359050610aff8161128b565b92915050565b600081519050610b148161128b565b92915050565b600060208284031215610b3057610b2f611108565b5b6000610b3e84828501610a98565b91505092915050565b600080600060608486031215610b6057610b5f611108565b5b6000610b6e86828701610a98565b9350506020610b7f86828701610af0565b925050604084013567ffffffffffffffff811115610ba057610b9f611103565b5b610bac86828701610ac2565b9150509250925092565b600060208284031215610bcc57610bcb611108565b5b6000610bda84828501610aad565b91505092915050565b600060208284031215610bf957610bf8611108565b5b6000610c0784828501610b05565b91505092915050565b610c1981610feb565b82525050565b6000610c2a82610fae565b610c348185610fc4565b9350610c44818560208601611066565b80840191505092915050565b610c5981611033565b82525050565b6000610c6a82610fb9565b610c748185610fcf565b9350610c84818560208601611066565b610c8d8161110d565b840191505092915050565b6000610ca382610fb9565b610cad8185610fe0565b9350610cbd818560208601611066565b80840191505092915050565b6000610cd6602683610fcf565b9150610ce18261111e565b604082019050919050565b6000610cf9602683610fcf565b9150610d048261116d565b604082019050919050565b6000610d1c602083610fcf565b9150610d27826111bc565b602082019050919050565b6000610d3f601d83610fcf565b9150610d4a826111e5565b602082019050919050565b6000610d62602a83610fcf565b9150610d6d8261120e565b604082019050919050565b610d8181611029565b82525050565b6000610d938284610c1f565b915081905092915050565b6000610daa8284610c98565b915081905092915050565b6000602082019050610dca6000830184610c10565b92915050565b6000606082019050610de56000830186610c10565b610df26020830185610c10565b610dff6040830184610d78565b949350505050565b6000604082019050610e1c6000830185610c10565b610e296020830184610d78565b9392505050565b6000602082019050610e456000830184610c50565b92915050565b60006020820190508181036000830152610e658184610c5f565b905092915050565b60006040820190508181036000830152610e878185610c5f565b9050610e966020830184610d78565b9392505050565b60006020820190508181036000830152610eb681610cc9565b9050919050565b60006020820190508181036000830152610ed681610cec565b9050919050565b60006020820190508181036000830152610ef681610d0f565b9050919050565b60006020820190508181036000830152610f1681610d32565b9050919050565b60006020820190508181036000830152610f3681610d55565b9050919050565b6000602082019050610f526000830184610d78565b92915050565b6000610f62610f73565b9050610f6e8282611099565b919050565b6000604051905090565b600067ffffffffffffffff821115610f9857610f976110ca565b5b610fa18261110d565b9050602081019050919050565b600081519050919050565b600081519050919050565b600081905092915050565b600082825260208201905092915050565b600081905092915050565b6000610ff682611009565b9050919050565b60008115159050919050565b600073ffffffffffffffffffffffffffffffffffffffff82169050919050565b6000819050919050565b600061103e82611045565b9050919050565b600061105082611009565b9050919050565b82818337600083830152505050565b60005b83811015611084578082015181840152602081019050611069565b83811115611093576000848401525b50505050565b6110a28261110d565b810181811067ffffffffffffffff821117156110c1576110c06110ca565b5b80604052505050565b7f4e487b7100000000000000000000000000000000000000000000000000000000600052604160045260246000fd5b600080fd5b600080fd5b600080fd5b600080fd5b6000601f19601f8301169050919050565b7f4f776e61626c653a206e6577206f776e657220697320746865207a65726f206160008201527f6464726573730000000000000000000000000000000000000000000000000000602082015250565b7f416464726573733a20696e73756666696369656e742062616c616e636520666f60008201527f722063616c6c0000000000000000000000000000000000000000000000000000602082015250565b7f4f776e61626c653a2063616c6c6572206973206e6f7420746865206f776e6572600082015250565b7f416464726573733a2063616c6c20746f206e6f6e2d636f6e7472616374000000600082015250565b7f5361666545524332303a204552433230206f7065726174696f6e20646964206e60008201527f6f74207375636365656400000000000000000000000000000000000000000000602082015250565b61126681610feb565b811461127157600080fd5b50565b61127d81610ffd565b811461128857600080fd5b50565b61129481611029565b811461129f57600080fd5b5056fea2646970667358221220414ae5b1706666dbdd0155e458ba157aec00d3f485c673d3ea78462754ea1b5164736f6c63430008050033",
  "linkReferences": {},
  "deployedLinkReferences": {}
}