{
  "_format": "hh-sol-artifact-1",
  "contractName": "TokenEscrow",
  "sourceName": "contracts/TokenEscrow.sol",
  "abi": [
    {
      "inputs": [
        {
          "internalType": "address",
          "name": "tokenAddress",
          "type": "address"
        }
      ],
      "stateMutability": "nonpayable",
      "type": "constructor"
    },
    {
      "anonymous": false,
      "inputs": [
        {
          "indexed": true,
          "internalType": "address",
          "name": "customer",
          "type": "address"
        },
        {
          "indexed": true,
          "internalType": "string",
          "name": "documentId",
          "type": "string"
        },
        {
          "indexed": false,
          "internalType": "uint256",
          "name": "amount",
          "type": "uint256"
        }
      ],
      "name": "Deposited",
      "type": "event"
    },
    {
      "anonymous": false,
      "inputs": [
        {
          "indexed": true,
          "internalType": "address",
          "name": "previousOwner",
          "type": "address"
        },
        {
          "indexed": true,
          "internalType": "address",
          "name": "newOwner",
          "type": "address"
        }
      ],
      "name": "OwnershipTransferred",
      "type": "event"
    },
    {
      "anonymous": false,
      "inputs": [
        {
          "indexed": true,
          "internalType": "address",
          "name": "payee",
          "type": "address"
        },
        {
          "indexed": false,
          "internalType": "uint256",
          "name": "amount",
          "type": "uint256"
        }
      ],
      "name": "Withdrawn",
      "type": "event"
    },
    {
      "inputs": [
        {
          "internalType": "address",
          "name": "payer",
          "type": "address"
        },
        {
          "internalType": "uint256",
          "name": "depositAmount",
          "type": "uint256"
        },
        {
          "internalType": "string",
          "name": "documentId",
          "type": "string"
        }
      ],
      "name": "deposit",
      "outputs": [],
      "stateMutability": "nonpayable",
      "type": "function"
    },
    {
      "inputs": [],
      "name": "owner",
      "outputs": [
        {
          "internalType": "address",
          "name": "",
          "type": "address"
        }
      ],
      "stateMutability": "view",
      "type": "function"
    },
    {
      "inputs": [],
      "name": "renounceOwnership",
      "outputs": [],
      "stateMutability": "nonpayable",
      "type": "function"
    },
    {
      "inputs": [],
      "name": "token",
      "outputs": [
        {
          "internalType": "contract IERC20",
          "name": "",
          "type": "address"
        }
      ],
      "stateMutability": "view",
      "type": "function"
    },
    {
      "inputs": [
        {
          "internalType": "address",
          "name": "newOwner",
          "type": "address"
        }
      ],
      "name": "transferOwnership",
      "outputs": [],
      "stateMutability": "nonpayable",
      "type": "function"
    },
    {
      "inputs": [
        {
          "internalType": "address",
          "name": "payee",
          "type": "address"
        }
      ],
      "name": "withdrawToken",
      "outputs": [
        {
          "internalType": "uint256",
          "name": "",
          "type": "uint256"
        }
      ],
      "stateMutability": "nonpayable",
      "type": "function"
    }
  ],
  "bytecode": "0x60806040523480156200001157600080fd5b50604051620014893803806200148983398181016040528101906200003791906200014e565b6000620000496200012f60201b60201c565b9050806000806101000a81548173ffffffffffffffffffffffffffffffffffffffff021916908373ffffffffffffffffffffffffffffffffffffffff1602179055508073ffffffffffffffffffffffffffffffffffffffff16600073ffffffffffffffffffffffffffffffffffffffff167f8be0079c531659141344cd1fd0a4f28419497f9722a3daafe3b4186f6b6457e060405160405180910390a35080600160006101000a81548173ffffffffffffffffffffffffffffffffffffffff021916908373ffffffffffffffffffffffffffffffffffffffff16021790555050620001d3565b600033905090565b6000815190506200014881620001b9565b92915050565b600060208284031215620001675762000166620001b4565b5b6000620001778482850162000137565b91505092915050565b60006200018d8262000194565b9050919050565b600073ffffffffffffffffffffffffffffffffffffffff82169050919050565b600080fd5b620001c48162000180565b8114620001d057600080fd5b50565b6112a680620001e36000396000f3fe608060405234801561001057600080fd5b50600436106100625760003560e01c8063715018a61461006757806389476069146100715780638da5cb5b146100a1578063bfe07da6146100bf578063f2fde38b146100db578063fc0c546a146100f7575b600080fd5b61006f610115565b005b61008b60048036038101906100869190610b18565b61024f565b6040516100989190610f0b565b60405180910390f35b6100a9610420565b6040516100b69190610db3565b60405180910390f35b6100d960048036038101906100d49190610b45565b610449565b005b6100f560048036038101906100f09190610b18565b610501565b005b6100ff6106aa565b60405161010c9190610e2e565b60405180910390f35b61011d6106d0565b73ffffffffffffffffffffffffffffffffffffffff1661013b610420565b73ffffffffffffffffffffffffffffffffffffffff1614610191576040517f08c379a000000000000000000000000000000000000000000000000000000000815260040161018890610eab565b60405180910390fd5b600073ffffffffffffffffffffffffffffffffffffffff1660008054906101000a900473ffffffffffffffffffffffffffffffffffffffff1673ffffffffffffffffffffffffffffffffffffffff167f8be0079c531659141344cd1fd0a4f28419497f9722a3daafe3b4186f6b6457e060405160405180910390a360008060006101000a81548173ffffffffffffffffffffffffffffffffffffffff021916908373ffffffffffffffffffffffffffffffffffffffff160217905550565b60006102596106d0565b73ffffffffffffffffffffffffffffffffffffffff16610277610420565b73ffffffffffffffffffffffffffffffffffffffff16146102cd576040517f08c379a00000000000000000000000000000000000000000000000000000000081526004016102c490610eab565b60405180910390fd5b6000600160009054906101000a900473ffffffffffffffffffffffffffffffffffffffff1673ffffffffffffffffffffffffffffffffffffffff166370a08231306040518263ffffffff1660e01b815260040161032a9190610db3565b60206040518083038186803b15801561034257600080fd5b505afa158015610356573d6000803e3d6000fd5b505050506040513d601f19601f8201168201806040525081019061037a9190610be1565b90506103c98382600160009054906101000a900473ffffffffffffffffffffffffffffffffffffffff1673ffffffffffffffffffffffffffffffffffffffff166106d89092919063ffffffff16565b8273ffffffffffffffffffffffffffffffffffffffff167f7084f5476618d8e60b11ef0d7d3f06914655adb8793e28ff7f018d4c76d505d58260405161040f9190610f0b565b60405180910390a280915050919050565b60008060009054906101000a900473ffffffffffffffffffffffffffffffffffffffff16905090565b610498833084600160009054906101000a900473ffffffffffffffffffffffffffffffffffffffff1673ffffffffffffffffffffffffffffffffffffffff1661075e909392919063ffffffff16565b806040516104a69190610d9c565b60405180910390208373ffffffffffffffffffffffffffffffffffffffff167ffd4bdef056842e4615d2a093647094c0b9bf67c63662d614d63fefd617e0add2846040516104f49190610f0b565b60405180910390a3505050565b6105096106d0565b73ffffffffffffffffffffffffffffffffffffffff16610527610420565b73ffffffffffffffffffffffffffffffffffffffff161461057d576040517f08c379a000000000000000000000000000000000000000000000000000000000815260040161057490610eab565b60405180910390fd5b600073ffffffffffffffffffffffffffffffffffffffff168173ffffffffffffffffffffffffffffffffffffffff1614156105ed576040517f08c379a00000000000000000000000000000000000000000000000000000000081526004016105e490610e6b565b60405180910390fd5b8073ffffffffffffffffffffffffffffffffffffffff1660008054906101000a900473ffffffffffffffffffffffffffffffffffffffff1673ffffffffffffffffffffffffffffffffffffffff167f8be0079c531659141344cd1fd0a4f28419497f9722a3daafe3b4186f6b6457e060405160405180910390a3806000806101000a81548173ffffffffffffffffffffffffffffffffffffffff021916908373ffffffffffffffffffffffffffffffffffffffff16021790555050565b600160009054906101000a900473ffffffffffffffffffffffffffffffffffffffff1681565b600033905090565b6107598363a9059cbb60e01b84846040516024016106f7929190610e05565b604051602081830303815290604052907bffffffffffffffffffffffffffffffffffffffffffffffffffffffff19166020820180517bffffffffffffffffffffffffffffffffffffffffffffffffffffffff83818316178352505050506107e7565b505050565b6107e1846323b872dd60e01b85858560405160240161077f93929190610dce565b604051602081830303815290604052907bffffffffffffffffffffffffffffffffffffffffffffffffffffffff19166020820180517bffffffffffffffffffffffffffffffffffffffffffffffffffffffff83818316178352505050506107e7565b50505050565b6000610849826040518060400160405280602081526020017f5361666545524332303a206c6f772d6c6576656c2063616c6c206661696c65648152508573ffffffffffffffffffffffffffffffffffffffff166108ae9092919063ffffffff16565b90506000815111156108a957808060200190518101906108699190610bb4565b6108a8576040517f08c379a000000000000000000000000000000000000000000000000000000000815260040161089f90610eeb565b60405180910390fd5b5b505050565b60606108bd84846000856108c6565b90509392505050565b60608247101561090b576040517f08c379a000000000000000000000000000000000000000000000000000000000815260040161090290610e8b565b60405180910390fd5b610914856109da565b610953576040517f08c379a000000000000000000000000000000000000000000000000000000000815260040161094a90610ecb565b60405180910390fd5b6000808673ffffffffffffffffffffffffffffffffffffffff16858760405161097c9190610d85565b60006040518083038185875af1925050503d80600081146109b9576040519150601f19603f3d011682016040523d82523d6000602084013e6109be565b606091505b50915091506109ce8282866109ed565b92505050949350505050565b600080823b905060008111915050919050565b606083156109fd57829050610a4d565b600083511115610a105782518084602001fd5b816040517f08c379a0000000000000000000000000000000000000000000000000000000008152600401610a449190610e49565b60405180910390fd5b9392505050565b6000610a67610a6284610f4b565b610f26565b905082815260208101848484011115610a8357610a826110cc565b5b610a8e848285611025565b509392505050565b600081359050610aa58161122b565b92915050565b600081519050610aba81611242565b92915050565b600082601f830112610ad557610ad46110c7565b5b8135610ae5848260208601610a54565b91505092915050565b600081359050610afd81611259565b92915050565b600081519050610b1281611259565b92915050565b600060208284031215610b2e57610b2d6110d6565b5b6000610b3c84828501610a96565b91505092915050565b600080600060608486031215610b5e57610b5d6110d6565b5b6000610b6c86828701610a96565b9350506020610b7d86828701610aee565b925050604084013567ffffffffffffffff811115610b9e57610b9d6110d1565b5b610baa86828701610ac0565b9150509250925092565b600060208284031215610bca57610bc96110d6565b5b6000610bd884828501610aab565b91505092915050565b600060208284031215610bf757610bf66110d6565b5b6000610c0584828501610b03565b91505092915050565b610c1781610fb9565b82525050565b6000610c2882610f7c565b610c328185610f92565b9350610c42818560208601611034565b80840191505092915050565b610c5781611001565b82525050565b6000610c6882610f87565b610c728185610f9d565b9350610c82818560208601611034565b610c8b816110db565b840191505092915050565b6000610ca182610f87565b610cab8185610fae565b9350610cbb818560208601611034565b80840191505092915050565b6000610cd4602683610f9d565b9150610cdf826110ec565b604082019050919050565b6000610cf7602683610f9d565b9150610d028261113b565b604082019050919050565b6000610d1a602083610f9d565b9150610d258261118a565b602082019050919050565b6000610d3d601d83610f9d565b9150610d48826111b3565b602082019050919050565b6000610d60602a83610f9d565b9150610d6b826111dc565b604082019050919050565b610d7f81610ff7565b82525050565b6000610d918284610c1d565b915081905092915050565b6000610da88284610c96565b915081905092915050565b6000602082019050610dc86000830184610c0e565b92915050565b6000606082019050610de36000830186610c0e565b610df06020830185610c0e565b610dfd6040830184610d76565b949350505050565b6000604082019050610e1a6000830185610c0e565b610e276020830184610d76565b9392505050565b6000602082019050610e436000830184610c4e565b92915050565b60006020820190508181036000830152610e638184610c5d565b905092915050565b60006020820190508181036000830152610e8481610cc7565b9050919050565b60006020820190508181036000830152610ea481610cea565b9050919050565b60006020820190508181036000830152610ec481610d0d565b9050919050565b60006020820190508181036000830152610ee481610d30565b9050919050565b60006020820190508181036000830152610f0481610d53565b9050919050565b6000602082019050610f206000830184610d76565b92915050565b6000610f30610f41565b9050610f3c8282611067565b919050565b6000604051905090565b600067ffffffffffffffff821115610f6657610f65611098565b5b610f6f826110db565b9050602081019050919050565b600081519050919050565b600081519050919050565b600081905092915050565b600082825260208201905092915050565b600081905092915050565b6000610fc482610fd7565b9050919050565b60008115159050919050565b600073ffffffffffffffffffffffffffffffffffffffff82169050919050565b6000819050919050565b600061100c82611013565b9050919050565b600061101e82610fd7565b9050919050565b82818337600083830152505050565b60005b83811015611052578082015181840152602081019050611037565b83811115611061576000848401525b50505050565b611070826110db565b810181811067ffffffffffffffff8211171561108f5761108e611098565b5b80604052505050565b7f4e487b7100000000000000000000000000000000000000000000000000000000600052604160045260246000fd5b600080fd5b600080fd5b600080fd5b600080fd5b6000601f19601f8301169050919050565b7f4f776e61626c653a206e6577206f776e657220697320746865207a65726f206160008201527f6464726573730000000000000000000000000000000000000000000000000000602082015250565b7f416464726573733a20696e73756666696369656e742062616c616e636520666f60008201527f722063616c6c0000000000000000000000000000000000000000000000000000602082015250565b7f4f776e61626c653a2063616c6c6572206973206e6f7420746865206f776e6572600082015250565b7f416464726573733a2063616c6c20746f206e6f6e2d636f6e7472616374000000600082015250565b7f5361666545524332303a204552433230206f7065726174696f6e20646964206e60008201527f6f74207375636365656400000000000000000000000000000000000000000000602082015250565b61123481610fb9565b811461123f57600080fd5b50565b61124b81610fcb565b811461125657600080fd5b50565b61126281610ff7565b811461126d57600080fd5b5056fea264697066735822122064870c6118f3246a4990289edf7ba1a99f4116e25f5d1eb3c4a544b309b213a764736f6c63430008050033",
  "linkReferences": {},
  "deployedLinkReferences": {}
}