{
  "_format": "hh-sol-artifact-1",
  "contractName": "TokenEscrow",
  "sourceName": "contracts/TokenEscrow.sol",
  "abi": [
    {
      "inputs": [
        {
          "internalType": "address",
          "name": "tokenAddress",
          "type": "address"
        }
      ],
      "stateMutability": "nonpayable",
      "type": "constructor"
    },
    {
      "anonymous": false,
      "inputs": [
        {
          "indexed": true,
          "internalType": "address",
          "name": "customer",
          "type": "address"
        },
        {
          "indexed": true,
          "internalType": "string",
          "name": "hashedDocumentId",
          "type": "string"
        },
        {
          "indexed": false,
          "internalType": "string",
          "name": "documentId",
          "type": "string"
        },
        {
          "indexed": false,
          "internalType": "uint256",
          "name": "amount",
          "type": "uint256"
        }
      ],
      "name": "Deposited",
      "type": "event"
    },
    {
      "anonymous": false,
      "inputs": [
        {
          "indexed": true,
          "internalType": "address",
          "name": "previousOwner",
          "type": "address"
        },
        {
          "indexed": true,
          "internalType": "address",
          "name": "newOwner",
          "type": "address"
        }
      ],
      "name": "OwnershipTransferred",
      "type": "event"
    },
    {
      "anonymous": false,
      "inputs": [
        {
          "indexed": true,
          "internalType": "address",
          "name": "payee",
          "type": "address"
        },
        {
          "indexed": false,
          "internalType": "uint256",
          "name": "amount",
          "type": "uint256"
        }
      ],
      "name": "Withdrawn",
      "type": "event"
    },
    {
      "inputs": [
        {
          "internalType": "address",
          "name": "payer",
          "type": "address"
        },
        {
          "internalType": "uint256",
          "name": "depositAmount",
          "type": "uint256"
        },
        {
          "internalType": "string",
          "name": "documentId",
          "type": "string"
        }
      ],
      "name": "deposit",
      "outputs": [],
      "stateMutability": "nonpayable",
      "type": "function"
    },
    {
      "inputs": [],
      "name": "owner",
      "outputs": [
        {
          "internalType": "address",
          "name": "",
          "type": "address"
        }
      ],
      "stateMutability": "view",
      "type": "function"
    },
    {
      "inputs": [],
      "name": "renounceOwnership",
      "outputs": [],
      "stateMutability": "nonpayable",
      "type": "function"
    },
    {
      "inputs": [],
      "name": "token",
      "outputs": [
        {
          "internalType": "contract IERC20",
          "name": "",
          "type": "address"
        }
      ],
      "stateMutability": "view",
      "type": "function"
    },
    {
      "inputs": [
        {
          "internalType": "address",
          "name": "newOwner",
          "type": "address"
        }
      ],
      "name": "transferOwnership",
      "outputs": [],
      "stateMutability": "nonpayable",
      "type": "function"
    },
    {
      "inputs": [
        {
          "internalType": "address",
          "name": "payee",
          "type": "address"
        }
      ],
      "name": "withdrawToken",
      "outputs": [
        {
          "internalType": "uint256",
          "name": "",
          "type": "uint256"
        }
      ],
      "stateMutability": "nonpayable",
      "type": "function"
    }
  ],
  "bytecode": "0x60806040523480156200001157600080fd5b50604051620014bb380380620014bb83398181016040528101906200003791906200014e565b6000620000496200012f60201b60201c565b9050806000806101000a81548173ffffffffffffffffffffffffffffffffffffffff021916908373ffffffffffffffffffffffffffffffffffffffff1602179055508073ffffffffffffffffffffffffffffffffffffffff16600073ffffffffffffffffffffffffffffffffffffffff167f8be0079c531659141344cd1fd0a4f28419497f9722a3daafe3b4186f6b6457e060405160405180910390a35080600160006101000a81548173ffffffffffffffffffffffffffffffffffffffff021916908373ffffffffffffffffffffffffffffffffffffffff16021790555050620001d3565b600033905090565b6000815190506200014881620001b9565b92915050565b600060208284031215620001675762000166620001b4565b5b6000620001778482850162000137565b91505092915050565b60006200018d8262000194565b9050919050565b600073ffffffffffffffffffffffffffffffffffffffff82169050919050565b600080fd5b620001c48162000180565b8114620001d057600080fd5b50565b6112d880620001e36000396000f3fe608060405234801561001057600080fd5b50600436106100625760003560e01c8063715018a61461006757806389476069146100715780638da5cb5b146100a1578063bfe07da6146100bf578063f2fde38b146100db578063fc0c546a146100f7575b600080fd5b61006f610115565b005b61008b60048036038101906100869190610b1a565b61024f565b6040516100989190610f3d565b60405180910390f35b6100a9610420565b6040516100b69190610db5565b60405180910390f35b6100d960048036038101906100d49190610b47565b610449565b005b6100f560048036038101906100f09190610b1a565b610503565b005b6100ff6106ac565b60405161010c9190610e30565b60405180910390f35b61011d6106d2565b73ffffffffffffffffffffffffffffffffffffffff1661013b610420565b73ffffffffffffffffffffffffffffffffffffffff1614610191576040517f08c379a000000000000000000000000000000000000000000000000000000000815260040161018890610edd565b60405180910390fd5b600073ffffffffffffffffffffffffffffffffffffffff1660008054906101000a900473ffffffffffffffffffffffffffffffffffffffff1673ffffffffffffffffffffffffffffffffffffffff167f8be0079c531659141344cd1fd0a4f28419497f9722a3daafe3b4186f6b6457e060405160405180910390a360008060006101000a81548173ffffffffffffffffffffffffffffffffffffffff021916908373ffffffffffffffffffffffffffffffffffffffff160217905550565b60006102596106d2565b73ffffffffffffffffffffffffffffffffffffffff16610277610420565b73ffffffffffffffffffffffffffffffffffffffff16146102cd576040517f08c379a00000000000000000000000000000000000000000000000000000000081526004016102c490610edd565b60405180910390fd5b6000600160009054906101000a900473ffffffffffffffffffffffffffffffffffffffff1673ffffffffffffffffffffffffffffffffffffffff166370a08231306040518263ffffffff1660e01b815260040161032a9190610db5565b60206040518083038186803b15801561034257600080fd5b505afa158015610356573d6000803e3d6000fd5b505050506040513d601f19601f8201168201806040525081019061037a9190610be3565b90506103c98382600160009054906101000a900473ffffffffffffffffffffffffffffffffffffffff1673ffffffffffffffffffffffffffffffffffffffff166106da9092919063ffffffff16565b8273ffffffffffffffffffffffffffffffffffffffff167f7084f5476618d8e60b11ef0d7d3f06914655adb8793e28ff7f018d4c76d505d58260405161040f9190610f3d565b60405180910390a280915050919050565b60008060009054906101000a900473ffffffffffffffffffffffffffffffffffffffff16905090565b610498833084600160009054906101000a900473ffffffffffffffffffffffffffffffffffffffff1673ffffffffffffffffffffffffffffffffffffffff16610760909392919063ffffffff16565b806040516104a69190610d9e565b60405180910390208373ffffffffffffffffffffffffffffffffffffffff167f772fd01ba2daadfdda09db1c550283047f5efffe92a0dea54d4ba34950a3d8e383856040516104f6929190610e6d565b60405180910390a3505050565b61050b6106d2565b73ffffffffffffffffffffffffffffffffffffffff16610529610420565b73ffffffffffffffffffffffffffffffffffffffff161461057f576040517f08c379a000000000000000000000000000000000000000000000000000000000815260040161057690610edd565b60405180910390fd5b600073ffffffffffffffffffffffffffffffffffffffff168173ffffffffffffffffffffffffffffffffffffffff1614156105ef576040517f08c379a00000000000000000000000000000000000000000000000000000000081526004016105e690610e9d565b60405180910390fd5b8073ffffffffffffffffffffffffffffffffffffffff1660008054906101000a900473ffffffffffffffffffffffffffffffffffffffff1673ffffffffffffffffffffffffffffffffffffffff167f8be0079c531659141344cd1fd0a4f28419497f9722a3daafe3b4186f6b6457e060405160405180910390a3806000806101000a81548173ffffffffffffffffffffffffffffffffffffffff021916908373ffffffffffffffffffffffffffffffffffffffff16021790555050565b600160009054906101000a900473ffffffffffffffffffffffffffffffffffffffff1681565b600033905090565b61075b8363a9059cbb60e01b84846040516024016106f9929190610e07565b604051602081830303815290604052907bffffffffffffffffffffffffffffffffffffffffffffffffffffffff19166020820180517bffffffffffffffffffffffffffffffffffffffffffffffffffffffff83818316178352505050506107e9565b505050565b6107e3846323b872dd60e01b85858560405160240161078193929190610dd0565b604051602081830303815290604052907bffffffffffffffffffffffffffffffffffffffffffffffffffffffff19166020820180517bffffffffffffffffffffffffffffffffffffffffffffffffffffffff83818316178352505050506107e9565b50505050565b600061084b826040518060400160405280602081526020017f5361666545524332303a206c6f772d6c6576656c2063616c6c206661696c65648152508573ffffffffffffffffffffffffffffffffffffffff166108b09092919063ffffffff16565b90506000815111156108ab578080602001905181019061086b9190610bb6565b6108aa576040517f08c379a00000000000000000000000000000000000000000000000000000000081526004016108a190610f1d565b60405180910390fd5b5b505050565b60606108bf84846000856108c8565b90509392505050565b60608247101561090d576040517f08c379a000000000000000000000000000000000000000000000000000000000815260040161090490610ebd565b60405180910390fd5b610916856109dc565b610955576040517f08c379a000000000000000000000000000000000000000000000000000000000815260040161094c90610efd565b60405180910390fd5b6000808673ffffffffffffffffffffffffffffffffffffffff16858760405161097e9190610d87565b60006040518083038185875af1925050503d80600081146109bb576040519150601f19603f3d011682016040523d82523d6000602084013e6109c0565b606091505b50915091506109d08282866109ef565b92505050949350505050565b600080823b905060008111915050919050565b606083156109ff57829050610a4f565b600083511115610a125782518084602001fd5b816040517f08c379a0000000000000000000000000000000000000000000000000000000008152600401610a469190610e4b565b60405180910390fd5b9392505050565b6000610a69610a6484610f7d565b610f58565b905082815260208101848484011115610a8557610a846110fe565b5b610a90848285611057565b509392505050565b600081359050610aa78161125d565b92915050565b600081519050610abc81611274565b92915050565b600082601f830112610ad757610ad66110f9565b5b8135610ae7848260208601610a56565b91505092915050565b600081359050610aff8161128b565b92915050565b600081519050610b148161128b565b92915050565b600060208284031215610b3057610b2f611108565b5b6000610b3e84828501610a98565b91505092915050565b600080600060608486031215610b6057610b5f611108565b5b6000610b6e86828701610a98565b9350506020610b7f86828701610af0565b925050604084013567ffffffffffffffff811115610ba057610b9f611103565b5b610bac86828701610ac2565b9150509250925092565b600060208284031215610bcc57610bcb611108565b5b6000610bda84828501610aad565b91505092915050565b600060208284031215610bf957610bf8611108565b5b6000610c0784828501610b05565b91505092915050565b610c1981610feb565b82525050565b6000610c2a82610fae565b610c348185610fc4565b9350610c44818560208601611066565b80840191505092915050565b610c5981611033565b82525050565b6000610c6a82610fb9565b610c748185610fcf565b9350610c84818560208601611066565b610c8d8161110d565b840191505092915050565b6000610ca382610fb9565b610cad8185610fe0565b9350610cbd818560208601611066565b80840191505092915050565b6000610cd6602683610fcf565b9150610ce18261111e565b604082019050919050565b6000610cf9602683610fcf565b9150610d048261116d565b604082019050919050565b6000610d1c602083610fcf565b9150610d27826111bc565b602082019050919050565b6000610d3f601d83610fcf565b9150610d4a826111e5565b602082019050919050565b6000610d62602a83610fcf565b9150610d6d8261120e565b604082019050919050565b610d8181611029565b82525050565b6000610d938284610c1f565b915081905092915050565b6000610daa8284610c98565b915081905092915050565b6000602082019050610dca6000830184610c10565b92915050565b6000606082019050610de56000830186610c10565b610df26020830185610c10565b610dff6040830184610d78565b949350505050565b6000604082019050610e1c6000830185610c10565b610e296020830184610d78565b9392505050565b6000602082019050610e456000830184610c50565b92915050565b60006020820190508181036000830152610e658184610c5f565b905092915050565b60006040820190508181036000830152610e878185610c5f565b9050610e966020830184610d78565b9392505050565b60006020820190508181036000830152610eb681610cc9565b9050919050565b60006020820190508181036000830152610ed681610cec565b9050919050565b60006020820190508181036000830152610ef681610d0f565b9050919050565b60006020820190508181036000830152610f1681610d32565b9050919050565b60006020820190508181036000830152610f3681610d55565b9050919050565b6000602082019050610f526000830184610d78565b92915050565b6000610f62610f73565b9050610f6e8282611099565b919050565b6000604051905090565b600067ffffffffffffffff821115610f9857610f976110ca565b5b610fa18261110d565b9050602081019050919050565b600081519050919050565b600081519050919050565b600081905092915050565b600082825260208201905092915050565b600081905092915050565b6000610ff682611009565b9050919050565b60008115159050919050565b600073ffffffffffffffffffffffffffffffffffffffff82169050919050565b6000819050919050565b600061103e82611045565b9050919050565b600061105082611009565b9050919050565b82818337600083830152505050565b60005b83811015611084578082015181840152602081019050611069565b83811115611093576000848401525b50505050565b6110a28261110d565b810181811067ffffffffffffffff821117156110c1576110c06110ca565b5b80604052505050565b7f4e487b7100000000000000000000000000000000000000000000000000000000600052604160045260246000fd5b600080fd5b600080fd5b600080fd5b600080fd5b6000601f19601f8301169050919050565b7f4f776e61626c653a206e6577206f776e657220697320746865207a65726f206160008201527f6464726573730000000000000000000000000000000000000000000000000000602082015250565b7f416464726573733a20696e73756666696369656e742062616c616e636520666f60008201527f722063616c6c0000000000000000000000000000000000000000000000000000602082015250565b7f4f776e61626c653a2063616c6c6572206973206e6f7420746865206f776e6572600082015250565b7f416464726573733a2063616c6c20746f206e6f6e2d636f6e7472616374000000600082015250565b7f5361666545524332303a204552433230206f7065726174696f6e20646964206e60008201527f6f74207375636365656400000000000000000000000000000000000000000000602082015250565b61126681610feb565b811461127157600080fd5b50565b61127d81610ffd565b811461128857600080fd5b50565b61129481611029565b811461129f57600080fd5b5056fea2646970667358221220414ae5b1706666dbdd0155e458ba157aec00d3f485c673d3ea78462754ea1b5164736f6c63430008050033",
  "linkReferences": {},
  "deployedLinkReferences": {}
}